:020000040800F2
:10000000C006002079020008156A0008B72500081C
:10001000116A0008091C00085D7F0008000000004C
:10002000000000000000000000000000DD6D00087E
:10003000CD1E000800000000616D0008F16E000890
:10004000930200089302000893020008930200083C
:10005000930200089302000893020008930200082C
:10006000930200089302000893020008930200081C
:10007000930200089302000893020008930200080C
:1000800093020008930200089302000893020008FC
:1000900093020008930200089302000893020008EC
:1000A00093020008930200089302000893020008DC
:1000B00093020008556F000893020008930200089D
:1000C00093020008930200089302000893020008BC
:1000D00093020008930200089302000893020008AC
:1000E000930200089302000893020008930200089C
:1000F000930200089302000893020008930200088C
:10010000930200089302000893020008930200087B
:10011000930200089302000893020008930200086B
:10012000930200089302000893020008930200085B
:1001300000F002F800F090F80AA090E8000C824469
:100140008344AAF10107DA4501D100F085F8AFF246
:10015000090EBAE80F0013F0010F18BFFB1A43F0A5
:1001600001031847F4C1000014C20000103A24BF74
:1001700078C878C1FAD8520724BF30C830C144BF0C
:1001800004680C607047000000230024002500264E
:10019000103A28BF78C1FBD8520728BF30C148BFEA
:1001A0000B6070476E2900F08581702900F0C782CE
:1001B000662909F0FE83652909F0FB83672909F0A8
:1001C000F8836129AFF3008003681B0A28BF41F060
:1001D0008001692900F03281642900F02F8175299E
:1001E00000F02C816F2900F05582782900F093826D
:1001F000E92900F0EF81E42900F0EC81F52900F015
:10020000E981EF2900F05282F82900F09282036818
:10021000DB0928BF41F08001632900F018867329AB
:1002200000F01D86E32900F02886F32900F02D86D2
:10023000002070471FB500F07FFE04000020002161
:1002400008F0C6FA401C60600020002108F0AAFAFD
:10025000E0601FBD10B510BD00F040FE1146FFF775
:10026000E9FF07F0F1FF00F019FF03B4FFF7F2FF19
:1002700003BC00F019FF0000094880470948004707
:10028000FEE7FEE7FEE7FEE7FEE7FEE7FEE7FEE746
:10029000FEE7FEE704480549054A064B70470000A3
:1002A000F56E000831010008C0000020C0060020E3
:1002B000C0020020C00200201CB50C46064B7B4447
:1002C00069460090204600F00EF904460020694679
:1002D00000F01CF920461CBD4B0200004FF0013C11
:1002E00050F8042B51F8043B9A4221D1A2EB0C03A5
:1002F000934313EACC1317D150F8042B51F8043B65
:100300009A4215D1A2EB0C03934313EACC130BD101
:1003100050F8042B51F8043B9A4209D1A2EB0C038C
:10032000934313EACC13DBD04FF00000704700BFBB
:10033000D01A01BAB1FA81F101F0180122FA01F0E4
:10034000CB40C1F12001DBB2C0B2C01A2CFA01F3DC
:10035000D11A914311EAC311E6D170477047704733
:10036000704710B500F0BAFA006810BD10B5044629
:1003700000F0B4FA046010BD70B5044685690068E9
:10038000C10601D5302600E02026C00707D070BD89
:10039000D4E9012130469047206A401C20626D1E3E
:1003A000F6D570BD70B5044685690078C00707D1E1
:1003B00070BDD4E9012120209047206A401C2062B2
:1003C0006D1EF6D570BD09684A0501D540B270476B
:1003D000C905FCD500B2704709684A0501D5C0B20D
:1003E0007047C905FCD580B2704770B50C4605460C
:1003F000012A05D02878800600D5EA69002302E0AA
:10040000012305E05B1C934202D2E05C0028F9D195
:10041000A869E618C01AA861286A18442862284604
:10042000FFF7AAFF04E0D5E9012114F8010B90477A
:10043000B442F8D32846FFF7B5FF70BD2DE9F0416F
:100440000646002410687529314616A510D0FFF71E
:10045000BAFF002802DA404213A507E031688A0794
:1004600001D512A502E0490704D511A5012401E038
:10047000FFF7B2FF00210A2206F1240709E0B0FBD2
:10048000F2FCB0FBF2F302FB1C003030785418464B
:10049000491C0028F3D123462A463046BDE8F041E6
:1004A00000F065BA000000002D0000002B000000E5
:1004B0002000000011680268006A530501D5087029
:1004C0000AE0D30501D5088006E0130603D5C2175C
:1004D000C1E9000200E008600120704701694A1C80
:1004E00002610878704700B58FB0CDE90131002175
:1004F000059105497944CDE903101146684600F09D
:1005000029F90FB000BD0000E5FFFFFF0A6802F8FF
:10051000010B0A60704700002DE9FF5F15468A460F
:100520000446DFF8AC80F8440027D8E900103E46C6
:10053000CDE9001010E03AF816106A4602A800F063
:10054000A8FC411C07D02178890603D5E269391837
:1005500091420DD80744761C2078800602D5E069C8
:10056000B84205DDAE42E6DB3AF816000028E2D1DB
:10057000A069C01BA0612046FFF7FEFED8E900106D
:10058000CDE90010002017E03AF818106A4602A8DA
:1005900000F07FFCB0F1FF3F81460BD000250DF14C
:1005A000080B05E0D4E901211BF8050090476D1CFC
:1005B0004D45F7D308F10100B0428046E4DB206AE4
:1005C000384420622046FFF7EDFEBDE8FF9F0000A3
:1005D000DABC00002DE9F0418046D21D22F007026E
:1005E0000025D2E90002F52915A614D0011E72F1EA
:1005F000000106DA0023D0EB030063EB020211A630
:1006000008E0D8F800108B0701D50FA602E04907D3
:1006100001D50EA601251146002408F1240704E0A7
:1006200000F060F930323A55641C50EA0102F7D10B
:100630002B46324621464046BDE8F04100F097B9CE
:10064000000000002D0000002B0000002000000032
:1006500030B4002100F1240408E002F00705D208BC
:10066000303542EA4372DB086554491C52EA0305FF
:10067000F3D10468002310A2250708D504F0200454
:100680000C4304D0C46901230CA2641EC46130BCB5
:1006900000F06DB910B5044621461068FFF79CFEC6
:1006A00002462046BDE810400023D1E7D21D22F0CB
:1006B0000701D1E90023CBE7000000003000000073
:1006C000F0B40D460188090502D5214C7C4402E0B6
:1006D0001F4C7C440E34002100F1240608E002F097
:1006E0000F071209E75D42EA03721B097754491CA0
:1006F00052EA0307F3D102780023120704D5702DC4
:1007000006D009B1022311342246F0BC00F02FB903
:1007100001231034F8E770B504460D4621461068F1
:10072000FFF75AFE024629462046BDE870400023E6
:10073000C6E7D21D22F00703D3E90023C0E7036810
:10074000126843F0200303600823C3610023B7E766
:100750003CBB00002DE9F05F894604464FF0000ADB
:10076000DFF874B1FB44C0F820A02046E168884758
:10077000002874D0252806D0D4E901219047206AAA
:10078000401C2062F1E700265F462046E16888476A
:100790002028054607DB312D05D2781910F8200CEA
:1007A00008B10643F1E7B00701D526F00406C4F806
:1007B0001CA00027C4F818A02A2D09D0284607F04D
:1007C000E3FB38B304EB8708303DC8F8185019E054
:1007D00059F8041B204604EB87029161E1688847C1
:1007E000012F054618D1E069002820DA26F02006FE
:1007F0001DE0D8F8180000EB800005EB4000303811
:10080000C8F818002046E1688847054607F0BCFB99
:100810000028EED1012F0AD02E2D08D12046E16804
:1008200088477F1C0546022F46F02006C4DBA069DE
:10083000002803DA404246F00106A061F00701D02B
:1008400026F010066C2D0BD0682D09D04C2D39D018
:100850006A2D35D0742D35D07A2D33D016E038E09E
:10086000E1682F4620468847B842054609D16C2FDB
:1008700026D04FF48060E16806432046884705464D
:1008800004E06C2F1AD04FF4807006430DB3A5F12D
:100890004100192802D8203546F400664A46294608
:1008A000204626604E46FFF77DFC80B101280BD024
:1008B000F61D26F0070000F1080956E74020E4E79E
:1008C0008020D8E70020D6E706F104094DE7284646
:1008D00052E7206ABDE8F09FCCBA0000004870479C
:1008E0005C00002030B5B0F10A024FEA900E71F1C1
:1008F00000034EEA817EB0EB0E0061EB91014FEAFE
:10090000101E4EEA017E10EB0E0041EB11114FEA72
:10091000102E4EEA016E10EB0E0041EB11214FEA52
:10092000104E4EEA014E10EB0E0041EB1141401803
:1009300041F100014FEAD00040EA41704FEAD10195
:1009400010EB80054FEA810444EA907444EB010403
:100950006D1944EB0404521BA3414FF0000348BF40
:100960000A3200D530BD401C41F1000130BD2DE9F7
:10097000F0470D4699469246044600F12408016866
:10098000880604D5E06921F01001216000E0012013
:10099000A84201DD471B00E00027A1697A1902EB9C
:1009A0000900081AA0612078C00602D42046FFF78B
:1009B000E3FC002608E0D4E901211AF8060090477C
:1009C000206A401C761C20624E45F4DB2078C0066D
:1009D0000AD52046FFF7D0FC06E0D4E901213020FB
:1009E0009047206A401C2062381EA7F10107F4DC02
:1009F00007E0D4E9012118F805009047206A401C5F
:100A00002062281EA5F10105F3DC2046FFF7CAFC91
:100A10002078000602D50220BDE8F0870120FBE720
:100A200070472DE9FF4F0C461E464FF0FF378BB045
:100A3000D2E90001DDF860800A908A46C1F30A55C8
:100A400005B93D46002108464FF00000BAF1000FFD
:100A500000F4400005DA00EB80004FF4400101EAA9
:100A600050004FEA9059B9F1010F00DDB9460A98DC
:100A700050EA4A000ED044F61050A5F2FF35454327
:100A80002F14B8F1000F1ED07542291E1EDDC9F1CA
:100A900000021CE0B8F1010F4FF0000001D030213E
:100AA00003E0F24305E02154401CB042FBDB30463A
:100AB0000022002121540B99C1F80880C1E90020CF
:100AC0000FB0BDE8F08FBD1B6D1CDEE74A4600DAB3
:100AD000694206A800F074FA06AB93E8070003AB7E
:100AE00083E8070050460A9900F0E5FA8DE8070010
:100AF000A0F500501F3800900398002D09DD42F248
:100B00001F014A46084403A90390684600F044FDCB
:100B100008E0A0F500504A461F3803A90390684634
:100B200000F04EFD8DE807000004000C03D04FF0EC
:100B3000FF30410800E01046B8F1000F03D000225A
:100B4000009215461EE0751E05D4FFF7CBFE30322D
:100B500062556D1EF9D5B3460122084302D000222A
:100B60007F1C04E02078302801D100227F1E002A5B
:100B7000099786D01DE0112D07DAFFF7B3FE30325A
:100B800062556D1C50EA0102F5D1084302D000986D
:100B9000C8B10EE00021681E05E0235C625C63546E
:100BA0002254401E491C8142F7DBAB46A81B401E65
:100BB0000990002004F80B000B98099AC0F80880EF
:100BC000C0E9002B7CE711264FF0000859E72DE91A
:100BD000F04F88460446D21D22F0070191B0D1E9BA
:100BE0000001CDE90A0107F0BBF902460B98C00FDE
:100BF00001D02D2007E02068810701D52B2002E0DD
:100C0000202101EAC000032A099001D0072A05DB50
:100C100003464146204600F093F90BE12078800618
:100C200001D5E06900E00620B8F1650F814606D0E5
:100C3000B8F1660F18D0B8F1670F70D131E000201D
:100C4000B9F1110F009001DB112301E009F101035B
:100C50000AAA01A90CA8FFF7E4FEDDE90C70002642
:100C600009F10105834647E001204B4600904FF013
:100C700000470AAA01A90CA8FFF7D3FEDDE90DB0D1
:100C80000C995D46002610B909F101000D18B9EB69
:100C9000050003D4C0F1FF3609F10105A5EB0900F9
:100CA0002BE0B9F1010F01DA4FF001090020B9F191
:100CB000110F0090484601DD112300E003460AAA07
:100CC00001A90CA8FFF7ADFEDDE90C704D4600262A
:100CD0008346207800070AD4AB4500DA5D4601A8B8
:100CE000012D04DD411911F8011C302907D04F45B1
:100CF00002DA17F1040F04DA012082460FE06D1EBC
:100D0000EEE7002F02DCED1B3E4403E0781CA84216
:100D100000DD7D1CB81B00F1010A4FF00047207870
:100D2000000703D4AA4501DB4FF0FF3A0021B7F1D9
:100D3000004F0DF143088DF8431024D002202B23DF
:100D4000002F01DA7F422D230A21021EA0F10100AB
:100D500000DC5FB197FBF1FC97FBF1F201FB1C7C1F
:100D600017460CF1300C08F801CDEEE7A8F10100B0
:100D700003702188090501D5452100E06521A0F116
:100D8000010800F8011C09980FA9A1EB0807FF1D35
:100D900000B10120411901EBEA70A1693844081A39
:100DA000401EA0612078C00602D42046FFF7E4FA76
:100DB000099828B1D4E901219047206A401C20629B
:100DC0002078C00622D52046FFF7D6FA1EE0002E76
:100DD00004DBB34502DD01A8805D00E03020D4E9EA
:100DE00001219047206A401C2062761CAAF1010074
:100DF0005FEA000A0AD100F09FF8C0680168405C11
:100E0000D4E901219047206A401C2062281EA5F1E8
:100E10000105DCDC07E0D4E9012118F8010B90475B
:100E2000206A401C2062381EA7F10107F3DC20462F
:100E3000FFF7B8FA032011B043E610B5436913B1C8
:100E4000AFF3008001E0FFF7D0FA012010BD127867
:100E500000F124010A7000224A700122EDE71168B6
:100E60004FF0FF32E9E710B5436913B1AFF30080EB
:100E700001E0FFF751FB012010BD128800F12401B1
:100E800082840022C2840122EDE711684FF0FF3214
:100E9000E9E770B516460C46054600F045F80368CC
:100EA00093F80101012806D0FF2C0FD8185D68B116
:100EB00001202C7070BDD3F807013246214603F2A1
:100EC000071303442846BDE8704018474FF0FF3031
:100ED00070BD0000004870475C0000207546FFF7B9
:100EE000F9FFAE4605006946534620F007008546E7
:100EF00018B020B5FFF7CEF9BDE820404FF000064E
:100F00004FF000074FF000084FF0000B21F00701F1
:100F1000AC46ACE8C009ACE8C009ACE8C009ACE834
:100F2000C0098D467047000010B500F005F8001D9F
:100F300010BD00BF9D780000004870477C00002075
:100F40002DE9F0411F46044603260168072A01F4F3
:100F5000006004DB08B116A505E016A503E008B1A2
:100F600015A500E015A521F010002060A069C01EA5
:100F7000A0610FB1401EA0612046FFF7FDF94FB1FF
:100F8000D4E9012138469047206A401C2062C01CE9
:100F9000206206E0206AFAE7D4E9012115F8010B86
:100FA0009047761EF8D22046FFF7FCF9BDE8F081A5
:100FB0004E414E006E616E00494E4600696E6600FD
:100FC0002DE9F047814616468AB0334878440DC86B
:100FD0008DE80D0030487844801C03AC0DC884E8CF
:100FE0000D0041F69B300844372190FBF1F290FB55
:100FF000F1F5A5F1800501FB12041B3C02D564420A
:10100000012000E00020DFF890A080460027FA448D
:10101000AAF1BE0A0DE0E00709D03246684607EBA8
:1010200047010AEB810100F0CBFA8DE8070064105C
:101030007F1C002CEFD1184F7F44AC3F18E0E8072D
:1010400014D007EB04100DF1180A90E80E008AE89E
:101050000E00C068F04201D198190890324606A9E6
:1010600003A800F0ADFA03AB83E807006D10641C21
:10107000002DE4D132466946B8F1000F03A802D032
:1010800000F08AFA01E000F09BFAC9E90001C9F812
:1010900008200AB0BDE8F087F4B200000446AFF3C0
:1010A00000802046FFF7E1F801491820ABBEFEE7BB
:1010B0002600020070475FEA400C08BF91F0000F65
:1010C0004FEA8C234FEAC12243EA51514FEA1C50A8
:1010D00018BF00F5F0404FEA300018BF41F0004162
:1010E0005FEA6C5C00F02980BCF1FF3F08BF40F074
:1010F00080407047130C06BF12044FF0100C4FF0E5
:10110000000C130E04BF12020CF1080C130F04BFE5
:1011100012010CF1040C930F04BF92000CF1020CAD
:10112000D30F04BF52000CF1010C11464FF0000226
:10113000A0F11F00A0EB0C00704711F0004F08BF9A
:10114000704731F000413FF4D5AF0B0C06BF0904E6
:101150004FF0100C4FF0000C0B0E04BF09020CF105
:10116000080C0B0F04BF09010CF1040C8B0F04BF1A
:1011700089000CF1020CCB0F04BF49000CF1010CEB
:10118000CCF12003A0EB0C0022FA03F302FA0CF2DC
:1011900041EA030100F10100704720F07F4C80EA32
:1011A000030023F07F47ACEB070303F57C5300F00B
:1011B000004003F1FF032DE980494FEA154B09B4C4
:1011C0004FEA144325EA0B4E24EA03480FF20426A3
:1011D00006EB132749083E785FEA320203FB0667F5
:1011E000C7F5000707FB06F64FEA54374FEAD64625
:1011F00006F1020607FB066CCCF1005C4FEA1C47C7
:101200002CEA074C07FB06F40CFB06F504EB15462D
:101210004FEA961634BF00204FF000404FEAD13716
:1012200006FB07FC4FEA1C4C0CFB0BF7D21B03FB25
:101230000CF761EB07010CFB0EF7B0EB074072EB0C
:1012400017420CFB08F734BFA2EB0742B2EB074290
:1012500061EB17414FEA0C444FEA910706FB07FC8C
:101260004FEA1C4C0CFB0BF7B0EBC74072EB57324C
:1012700003FB0CF734BFA2EBC742B2EBC74261EBF2
:1012800057310CFB0EF7B0EBC70072EB57720CFB3B
:1012900008F734BFA2EBC702B2EBC70261EB57718C
:1012A000039F4FEA816141EA921104EBCC044FEABB
:1012B000D1374FEA826206FB07FC42EA90124FEAFE
:1012C00080604FEA1C4C0CFB0BF7D21B03FB0CF7A6
:1012D00061EB07010CFB0EF7B0EB074072EB174216
:1012E0000CFB08F734BFA2EB0742B2EB074261EBFD
:1012F00017414FEA8C554FEA910704EB9C2406FBFB
:1013000007FC4FEA1C4C0CFB0BF7B0EBC74072EB31
:10131000573203FB0CF734BFA2EBC742B2EBC74214
:1013200061EB57310CFB0EF7B0EBC70072EB577255
:101330000CFB08F734BFA2EBC702B2EBC70261EBAC
:10134000577115EB4C254FEA816141EA92114FEA42
:1013500082624FEAD13742EA901206FB07FC44F161
:1013600000044FEA80604FEA1C4C0CFB0BF7D21BC9
:1013700003FB0CF761EB07010CFB0EF7B0EB07402A
:1013800072EB17420CFB08F734BFA2EB0742B2EB3B
:10139000074261EB174115EB1C154FEA813141EA19
:1013A00092414FEA823242EA90424FEA80304FEA5D
:1013B0000C7644F1000448EA03434EEA0B484FF030
:1013C000000EB2EB080C71EB030724BF62463946EE
:1013D0004EEB0E0E4FF0000B0018524149414BEB03
:1013E0000B0BB2EB080C71EB03077BF1000B24BF76
:1013F000624639464EEB0E0E4FF0000B001852417C
:1014000049414BEB0B0BB2EB080C71EB03077BF183
:10141000000B24BF624639464EEB0E0E51EA02071E
:1014200018BF46F0010616EB0E7655F1000254F196
:10143000000103D5BDE88901BDE80088BDE8890148
:10144000BDE80048B619524141EB0101A3F1010387
:10145000704780807F7E7D7C7B7A79787776767521
:101460007473727171706F6E6E6D6C6C6B6A6A6999
:101470006868676666656464636362616160605F33
:101480005F5E5E5D5D5C5C5B5B5A5A5959585857AC
:101490005756565555555454535352525251515014
:1014A00050504F4F4F4E4E4D4D4D4C4C4C4B4B4B67
:1014B0004A4A4A49494948484847474747464646AD
:1014C00045454544444444434343434242424241E8
:1014D0004141002B26D4770021D01CB54FEA3707B5
:1014E00003B44FF010004FF010014FF000000FBC9C
:1014F000BDE810400BF1010BBBF1010F08BF5FEA23
:10150000170722BF12F1010211F101014FF0004152
:1015100043F1000300F0004043EA00007047F9D3B4
:101520005708DAE746EA064613F1400F4FEA164637
:101530001FDD13F1200FDFBF16430A4600212033C1
:101540005B42C8D0C3F1200746EA064602FA07F715
:101550004FEA164646EA0706C3F1200722FA03F2CD
:1015600001FA07F721FA03F14FF0000342EA0702FC
:10157000B1E746EA020646EA06464FEA164646EA5A
:101580000106BCBF46EA0646360C4FF000034FF09A
:1015900000024FF000019EE72DE9C048934630B4A9
:1015A00091E8380007C831EA400C48BF34EA430CE0
:1015B00003D5FFF7F2FDFFF78CFFF0BCBDE8008814
:1015C0002DE9C048934630B491E8380007C810F0C0
:1015D000804F08BF13F0804F03D100F005F8FFF7EC
:1015E00078FFF0BCBDE8008820F07F4780EA030068
:1015F00023F07F4C07EB0C03A3F57C5300F0004075
:10160000A3F1FE0392F0000F00F0B38095F0000FFD
:1016100000F077802DE901494FEA11404FEA144666
:1016200021EA004800FB06FC24EA064708FB06F610
:1016300007FB08F800FB07F718EB06484CEB164CC5
:101640004FEA124B18EB07484FEA15464CEB174090
:1016500022EA0B4E0BFB06FC25EA06470EFB06F6BC
:1016600007FB0EFE0BFB07F71EEB064E4CEB164C72
:101670004FF000061EEB074E4CEB174B18EB0B0818
:1016800040F1000018EB0E0B58EB000840F1000091
:101690008F1A4FF000013CBFC943661B14BFB5EB66
:1016A000040C00213CBFC943F61B4FEA17444EEA25
:1016B0008E0E27EA04454FEA1C4704FB07622CEA1A
:1016C000074C05FB07F70CFB05F604FB0CFC16EBBF
:1016D000074642EB174216EB0C4642EB1C421BEB53
:1016E000060658EB0202414146EA9E0601D5BDE8D6
:1016F0000189B619524141EB0101A3F10103BDE893
:1017000001894FEA14454FEA114724EA054621EAC8
:10171000074C05FB07F406FB07F70CFB06F105FB7E
:101720000CFC11EB074144EB17444FEA124711EB55
:101730000C4144EB1C4422EA074C05FB07F206FB74
:1017400007F70CFB06F605FB0CFC16EB074642EB15
:10175000174216EB0C4642EB1C456A1854F1000187
:1017600048BF7047B619524141EB0101A3F1010393
:10177000704795F0000F37D04FEA11424FEA1447F7
:1017800021EA024624EA074C02FB07F106FB07F7B1
:101790000CFB06F402FB0CFC14EB074441EB174175
:1017A0004FEA154714EB0C4441EB1C4125EA074C6A
:1017B00002FB07F506FB07F70CFB06F602FB0CFC29
:1017C00016EB074645EB174516EB0C4645EB1C425E
:1017D000121951F1000148BF7047B619524141EB4F
:1017E0000101A3F1010370474FEA14454FEA114785
:1017F00024EA054621EA074C05FB07F106FB07F73B
:101800000CFB06F24FF0000605FB0CFC12EB074246
:1018100041EB174112EB0C4251EB1C4148BF7047A2
:10182000921841EB0101A3F10103704721B18268D5
:1018300042F00102826003E0826822F001028260CD
:101840007047000010B504461248844208D10121B7
:10185000401505F0B3FA0021601505F0AFFA17E066
:101860000D48844208D10121001505F0A7FA002196
:10187000201505F0A3FA0BE00848844208D10121A5
:10188000C80305F09BFA00214FF4004005F096FADA
:1018900010BD00000024014000280140003C014030
:1018A000014600208A6802F004020AB1012000E02B
:1018B000002070470146C86C80B270470246002085
:1018C00013680B400BB1012000E000207047014677
:1018D00000208A6802F008020AB1012000E000201E
:1018E0007047000030B502460020002350680F4CBE
:1018F00020400D790C6844EA05242043506090682C
:101900000B4C2040D1E902542C434D7944EA450464
:1019100020439060D06A20F470000C7C641EE4B216
:10192000234340EA0350D06230BD0000FFFEF0FFC9
:10193000FDF7F1FFF0B504460D4600200021092D0A
:1019400011DDE068A5F10A0606EB4607072606FA50
:1019500007F18843A5F10A0606EB460603FA06F1ED
:101960000843E0600CE0206905EB4507072606FA0E
:1019700007F1884305EB450603FA06F108432061A9
:10198000072A0FDA606B561E06EB86071F2606FA3B
:1019900007F18843561E06EB860605FA06F1084352
:1019A000606322E00D2A0FDA206BD61F06EB860754
:1019B0001F2606FA07F18843D61F06EB860605FAAE
:1019C00006F10843206310E0E06AA2F10D0606EB81
:1019D00086071F2606FA07F18843A2F10D0606EBDB
:1019E000860605FA06F10843E062F0BD816841F021
:1019F00008018160704721B1826842F4A0028260D0
:101A000003E0826822F4A00282607047816841F09E
:101A100004018160704700002DE9F84F0E2000F0AE
:101A2000B5FD009007F06CF980464FF066320D4B23
:101A300007F0B6F9064600220B4B06F0C5FF044638
:101A400006F0DCFE82460949504607F071FE044666
:101A5000074907F039FF8346584607F01DFE80B25C
:101A6000BDE8F88F66660A400000B04000A02D4532
:101A700000D0534510B500F0C9FD10BD2DE9F0416F
:101A800007460C460026002509E036023919491B95
:101A9000491E88B200F008F80644681CC5B2A54289
:101AA000F3DB3046BDE8F08170B50446002600F057
:101AB00067FE2546E11704EB11610912A02202EB33
:101AC0004101C8B200F028FE00F0A6FEE11704EBC9
:101AD00011610912A4EB0121C8B200F01DFE00F053
:101AE0009BFE00F04DFEA12000F016FE00F094FEDB
:101AF000002000F0D9FD064600F068FE304670BDBB
:101B00002DE9F04105460E461746002409E0E200A3
:101B100026FA02F2D1B22A1990B200F006F8601C3F
:101B2000C4B2BC42F3DBBDE8F08170B504460E469A
:101B300000F026FE2546E11704EB11610912A022F0
:101B400002EB4101C8B200F0E7FD00F065FEE117CD
:101B500004EB11610912A4EB0121C8B200F0DCFD15
:101B600000F05AFE304600F0D7FD00F055FE00F0C0
:101B70002DFE0A2006F032FA70BD000000B587B0D5
:101B800001214FF4047005F009F94FF4004005F00D
:101B9000E9F81020ADF8040000208DF8070001A935
:101BA000174800F06EFA1748FFF74CFE002002902D
:101BB0008DF80C008DF80D004FF46020049000208B
:101BC000059001208DF8180002A90E48FFF78AFE43
:101BD00001210C48FFF72AFE0A48FFF707FF00BF64
:101BE0000848FFF774FE0028FAD10648FFF70EFFF9
:101BF00000BF0448FFF754FE0028FAD107B000BD2B
:101C0000001001400024014000BFFEE710B50A208B
:101C100006F00AFA10BD000010B500200E49086059
:101C20000E48006820F0F0000C4908600846006883
:101C300040F03000086000200949C1F8A401FFF716
:101C4000E5FF012004490860FFF7E0FF0020054997
:101C5000C1F8840110BD000084812142041C0140B0
:101C6000008023420080214208B50121882005F030
:101C700095F80220ADF8000010208DF80300032035
:101C80008DF8020069460A4800F0FBF90221084875
:101C900000F084FA4FF40070ADF800006946054882
:101CA00000F0EFF94FF40071024800F077FA08BD38
:101CB000000C0140001C014010B500200E490860D6
:101CC0000E48006820F0F0000C49086008460068E3
:101CD00040F03000086001200949C1F8A401FFF775
:101CE00095FF012004490860FFF790FF0020054997
:101CF000C1F8840110BD000084812142041C014010
:101D0000008023420080214270B50546002415481A
:101D1000006820F0F000134908600846006840F0B1
:101D200080000860002612E000200F4908601E2095
:101D300006F07AF901200D49C1F884016006040E0D
:101D40000B48006808B1601CC4B2701CC6B2082EF3
:101D5000EADB15B9FFF7B0FF01E0FFF75DFF2046B2
:101D600070BD0000041C014084812142008021429A
:101D70002481234270B504461248006820F0F00028
:101D8000104908600846006840F0300008600020F4
:101D90000D490860002511E0E0090C490860600663
:101DA000040E01200A49C1F88401FFF72FFF00202B
:101DB00005490860FFF72AFF681CC5B2082DEBDB58
:101DC00070BD0000041C014084812142A481234293
:101DD0000080214210B50E48006820F0F0000C4948
:101DE00008600846006840F030000860012009499A
:101DF00008600949C1F88401FFF708FF0020054980
:101E00000860FFF703FF00200349C1F8840110BDFB
:101E1000041C0140A48123420080214210B50E48D9
:101E2000006820F0F0000C4908600846006840F0A7
:101E300030000860012009490860FFF7E7FE002034
:101E40000749C1F8A401FFF7E1FE01200549086038
:101E5000FFF7DCFE10BD0000041C0140848121421C
:101E600000802342A481234210B500241348006857
:101E700020F0F000114908600846006840F080003A
:101E8000086001200E49086006F0CEF801200D49D7
:101E9000C1F8840106F0C8F807E0601CC4B2FA2C4F
:101EA00003DDFFF7BBFF012010BD05488038006847
:101EB0000028F2D10449086000BFF5E7041C014086
:101EC000A4812342008021428481214270472DE970
:101ED000F04306460F469046002445460320A0EBFB
:101EE00048093CE07A1B91B2321990B200F028FE0A
:101EF0003A1B91B2721990B200F022FE3A1991B2D7
:101F0000721990B200F01CFE7A1991B2321990B297
:101F100000F016FE7A1991B2321B90B200F010FE5A
:101F20003A1991B2721B90B200F00AFE7A1B91B27C
:101F3000321B90B200F004FE3A1B91B2721B90B2B9
:101F400000F0FEFD641CB9F1000F03DAA000801D53
:101F5000814404E0601B80000A3081446D1EAC4265
:101F6000C0DDBDE8F083000051B18200A2F1C042A3
:101F7000126842F001038200A2F1C042136009E03E
:101F80008200A2F1C0421268034B1A408300A3F101
:101F9000C0431A6070470000FEFF0F00D0E9011235
:101FA0001143C268114302691143426911438269B6
:101FB0001143C2691143026A1143426A1143826AA2
:101FC0001143C26A1143026B114302689200A2F1ED
:101FD000C0421160816808290BD101688900A1F114
:101FE000C041096841F0400201688900A1F1C04187
:101FF0000A60416B0968426B526841EA0211426B08
:10200000926841EA0221426B928941EA0241426BA5
:10201000128A41EA0251426B127D41EA0261426B2F
:10202000926911430268521C9200A2F1C0421160F1
:10203000C16AB1F5804F1BD1816B0968826B526810
:1020400041EA0211826B926841EA0221826B128A94
:1020500041EA0251826B127D41EA0261826B926910
:10206000114302689200A2F1C042C2F8041107E0D5
:102070006FF0704201688900A1F1C041C1F80421EC
:1020800070472DE9F041024600250026002000237C
:102090000024002791F803C00CF00F0591F803C04D
:1020A0000CF0100CBCF1000F03D091F802C04CEA08
:1020B000050591F800C0BCF1000F31D01468002074
:1020C0002BE04FF0010C0CFA00F3B1F800C00CEA61
:1020D00003069E4220D183004FF00F0C0CFA03F749
:1020E000BC4305FA03FC4CEA040491F803C0BCF1BC
:1020F000280F06D14FF0010C0CFA00FCC2F814C0F6
:102100000AE091F803C0BCF1480F05D14FF0010C73
:102110000CFA00FCC2F810C0401C0828D1D314608F
:10212000B1F800C0BCF1FF0F34DD546800202EE090
:1021300000F1080C4FF0010808FA0CF3B1F800C0E8
:102140000CEA03069E4221D183004FF00F0C0CFADB
:1021500003F7BC4305FA03FC4CEA040491F803C0FE
:10216000BCF1280F05D100F1080C08FA0CF8C2F8F0
:10217000148091F803C0BCF1480F07D100F1080C9E
:102180004FF0010808FA0CF8C2F81080401C08282B
:10219000CED35460BDE8F081416170470161704762
:1021A0000EB50121882004F0F9FD0420ADF80000EF
:1021B00010208DF8030003208DF802006946334893
:1021C000FFF75FFF04213148FFF7E8FF4FF480601D
:1021D000ADF8000069462E48FFF753FF4FF48061C9
:1021E0002B48FFF7DBFFFFF73FFD00202949086080
:1021F0000A2005F0F3FE01202749C1F888010A20D2
:1022000005F0ECFE28208DF8030069462048FFF712
:1022100038FF4FF480611E48FFF7BEFF642005F0D1
:10222000DDFE042201A948F2401000F03BF8002036
:102230008DF8080019A101A8FEF750F818BB02207C
:102240008DF80400012201A948F2400000F056F97F
:10225000012201A948F2470000F024F89DF804008B
:10226000602802DA012000F01BF90A2005F0B6FE12
:1022700000208DF80400012201A948F2400000F07E
:102280003DF900200EBD0120FCE70000000C0140DC
:10229000001C0140888121420080214239313437BD
:1022A000000000002DE9F04105460F461646FFF7F5
:1022B00091FD2820FFF75EFDFFF7D6FD2812FFF7FE
:1022C00059FDFFF7D1FDE8B2FFF754FDFFF7CCFD54
:1022D000FFF780FD2920FFF74DFDFFF7C5FD002426
:1022E0000BE0711EA14201D0012100E0002108464F
:1022F000FFF70AFD3855601CC4B2B442F1DBFFF7AA
:102300008DFDBDE8F081000031B582B000240025CC
:1023100060480078401C5F490870084600780A2130
:1023200090FBF1F201FB120018B15A4800780A281C
:102330007DDA012202A948F24E10FFF7B3FF9DF8A3
:10234000080000F00F00002869D09DF8080000F098
:102350000F00062863DA9DF8080000F00F01FF2047
:102360008840C0B200909DF80000C043C0B240F069
:10237000C00049490874002443E04748007C01211B
:10238000A140084020B3454931F81400042201A9B6
:10239000FFF788FF404890F8200000F00100C0B12E
:1023A0009DF804009DF8051000EB012081B23A4829
:1023B0000E3020F814109DF806009DF8071000EB71
:1023C0000120C0F5487081B233480C3020F8141059
:1023D00015E09DF804009DF8051000EB012081B286
:1023E0002D480C3020F814109DF806009DF80710B9
:1023F00000EB012081B228480E3020F81410601C38
:10240000C4B2052CB9DB01252348808920B92248B4
:10241000C08908B90020029000201E4908709DF86C
:10242000080000F0800010B19DF8080000E00BE00B
:1024300000F00F00062807DA00200090012269460C
:1024400048F24E1000F05AF89DF8080000F08F0096
:10245000802815D11048007C00F0800030B10E4873
:10246000007C20F080000C49087409E04FF6FF70F2
:1024700009498881C8810846007C00F0E0000874A2
:1024800004480078F02802DD0A2002490870284636
:102490003EBD00001C00002020000020EEC100080E
:1024A00038B50546002400208DF800008DF8015055
:1024B00000BF09E09DF800000F49095D0844C0B263
:1024C0008DF80000601CC4B2B82CF3D39DF8000056
:1024D000C043401CC0B28DF80000B822064948F243
:1024E000470000F00BF80222694648F2FF0000F0B6
:1024F00005F8002038BD000036C100082DE9F04184
:1025000004460E4617464FF00008FFF763FC2820EC
:10251000FFF730FCFFF7A8FC2012FFF72BFCFFF7BA
:10252000A3FCE0B2FFF726FCFFF79EFC00250BE0C2
:10253000705DFFF71FFCFFF797FC8046B8F1000FB6
:1025400000D003E0681CC5B2BD42F1DB00BFFFF75D
:1025500065FC4046BDE8F08110B504460723012222
:1025600021460948FFF7E6F901210748FFF743FA3A
:1025700000BF02210448FFF7A1F90028F9D0024862
:10258000FFF798F910BD00000024014070B5064621
:102590000024002508E03046FFF7DEFF0444012058
:1025A00005F01CFD681CC5B2052DF4DB0520B4FB4D
:1025B000F0F080B270BD00BFFEE7000010B5002053
:1025C0000F4908600F48006820F470400D4908600A
:1025D0000846006840F44050086000200A49C1F8ED
:1025E000AC01022005F020FD012005490860022011
:1025F00005F01AFD00200449C1F8A80110BD000033
:10260000A8812142040C01400080214208B501212B
:10261000082004F0C3FB4FF44060ADF80000102028
:102620008DF8030003208DF8020069460748FFF784
:1026300028FD4FF440610548FFF7B0FD0120044933
:1026400008600449C1F8AC0108BD0000000C01405D
:10265000A88121420080214210B500200F49086066
:102660000F48006820F470400D4908600846006873
:1026700040F44050086001200A49C1F8AC01022032
:1026800005F0D2FC012005490860022005F0CCFCD1
:1026900000200449C1F8A80110BD0000A881214212
:1026A000040C01400080214270B505460024174803
:1026B000006820F47040154908600846006840F43E
:1026C00000400860002616E0002011490860022042
:1026D00005F0AAFC01200F49C1F8A8016006040E0C
:1026E0000B487C38006808B1601CC4B2012005F0BA
:1026F0009BFC701CC6B2082EE6DB15B9FFF7ACFFD9
:1027000001E0FFF75BFF204670BD0000040C0140B4
:10271000A88121420080214270B504461548006816
:1027200020F47040134908600846006840F44050A7
:102730000860002010490860002517E0E0090E49F4
:10274000091D08606006040E022005F06DFC0120E2
:102750000A49C1F8A801022005F066FC00200649DC
:102760000860022005F060FC681CC5B2082DE5DB9E
:1027700070BD0000040C0140A8812142008021426C
:1027800010B50F48006820F470400D4908600846F5
:10279000006840F44050086001200A4908600A4976
:1027A000C1F8A801042005F03FFC0020054908609D
:1027B000042005F039FC00200349C1F8A80110BD30
:1027C000040C0140AC8121420080214210B50F4829
:1027D000006820F470400D4908600846006840F425
:1027E0004050086000200A4908600A49C1F8AC015D
:1027F000042005F019FC0120054908600549C1F8CD
:10280000AC01042005F010FC10BD0000040C0140D8
:10281000A88121420080214210B50024144800689C
:1028200020F47040124908600846006840F40040F7
:10283000086001200F49086005F0F6FB01200E49F1
:10284000C1F8A80105F0F0FB07E0601CC4B2FA2C47
:1028500003DDFFF7BBFF012010BD0648803800688C
:102860000028F2D10349091F086000BFF4E7000007
:10287000040C0140AC8121420080214270B5044625
:10288000002617480588408845431548808846F645
:102890000401884216D112488079012812D1002003
:1028A0000F4988712A2048812B2088810021084601
:1028B00003F058FE01200A4988712B2048812A2004
:1028C000888103E00021084603F04CFE04F050F834
:1028D000002602E003480480761CAE42FAD370BDA5
:1028E0004C0000200008006C10B50446002C60D19C
:1028F00066498871F02008804FF4A070488008462F
:10290000808849F2413188420BD06048808846F681
:102910000401884205D05D48808845F21031884224
:102920001AD12C20594908812A2048812B208881DE
:102930000846808846F60401884205D053488088BE
:1029400045F21031884206D14FF4A0704F490880FB
:102950004FF4F070488095E04C48808848F6891123
:10296000884207D12220494908814E2048814F20C2
:10297000888187E04548808845F21051884210D10F
:102980004FF43050414908814FF4285048814FF4AA
:102990002C5088814FF4F07008804FF448704880C4
:1029A00070E0222039490881202048812120888137
:1029B00068E00120354988714FF4A0700880F0204C
:1029C00048800846808849F24131884205D02F4826
:1029D000808845F21031884207D12C202B4908818C
:1029E0002A2048812B20888139E02848808846F6B3
:1029F0000401884207D12C20244908812B204881DA
:102A00002A2088812BE02148808848F68911884255
:102A100007D122201D4908814F2048814E208881FE
:102A20001DE01A48808845F21051884210D14FF4B9
:102A30003050164908814FF4285048814FF42C50EB
:102A400088814FF4487008804FF4F070488006E0A9
:102A500022200E49088121204881202088810B48AE
:102A6000808846F60401884205D00848808845F2EF
:102A70001031884206D14FF4F070044908804FF4B9
:102A8000A0704880002003F009FC10BD4C0000201D
:102A90002DE9FF4F84B081468A46002003900290C2
:102AA0000698A0EB09050798A0EB0A06CDF804905C
:102AB000CDF800A0002D01DD012705E00DB90027AC
:102AC00002E04FF0FF376D42002E02DD4FF00108AB
:102AD00006E016B94FF0000802E04FF0FF387642EA
:102AE000B54201DD2C4600E034464FF0000B21E0FA
:102AF000009A91B2019A90B200F022F8039828440B
:102B000003900298304402900398A04205DD039898
:102B1000001B03900198384401900298A04205DD03
:102B20000298001B02900098404400900BF10100B5
:102B30001FFA80FB601C8345DADD08B0BDE8F08F2A
:102B400030B504460D462946204603F00BFD03F040
:102B50000FFF024800880249088030BD180000209D
:102B60000008006C00B59FB00121080204F006F9CE
:102B7000012140F2691004F011F90120ADF878004C
:102B800010208DF87B0003208DF87A001EA9FE48E6
:102B9000FFF777FA4CF23370ADF8780018208DF813
:102BA0007B0003208DF87A001EA9F848FFF769FA28
:102BB0004FF68070ADF8780018208DF87B00032068
:102BC0008DF87A001EA9F248FFF75BFA41F2010086
:102BD000ADF8780018208DF87B0003208DF87A007E
:102BE0001EA9EC48FFF74DFA01200890002009903B
:102BF0000F200A9000200B900C900D900E900190E9
:102C00000290032003900020049005900690079006
:102C100006200F900020109011901020129000209C
:102C2000139015901490169017904FF480501890B0
:102C3000002019904FF480401A9000201B9008A8A3
:102C40001C9001A81D900FA8FFF7A8F901210620EC
:102C5000FFF78AF9322005F0C1F90121002003F0C5
:102C600091FE322005F0BAF9002003F00BFBCA49AF
:102C7000888008468088FF280ADB084680884FF64F
:102C8000FF71884204D0C4488088B0F5134F7CD1CE
:102C9000D32003F067FE03F0EFFA03F0EDFA03F040
:102CA000EBFABD498880084680884FF6FF7101EA3B
:102CB0000020B949888003F0DFFAB74989880843C2
:102CC000B54988800846808849F2413188426CD0F5
:102CD000BF2003F047FE03F0CFFA03F0CDFA03F074
:102CE000CBFA03F0C9FAAC498880084680884FF6D1
:102CF000FF7101EA0020A849888003F0BDFAA649C7
:102D000089880843A44988800846808846F60401DB
:102D100088424AD0D42003F025FE03F0ADFA03F038
:102D2000ABFA03F0A9FA9C498880084680884FF6E0
:102D3000FF7101EA00209849888003F09DFA9649C6
:102D400089880843944988800846808845F2103174
:102D500088422AD04FF45A4003F004FE03F08CFA64
:102D60004FF45B4003F0FEFD03F086FA8A49888049
:102D7000084680884FF6FF7101EA00208649888066
:102D80004FF45C4003F0EEFD00E00EE003F074FA57
:102D90008149898808438049888008468088B0F541
:102DA000004F02D145F2105088807B48808849F25C
:102DB000413188427ED1CF2003F0D4FD002003F0C2
:102DC000CBFDC12003F0C8FD302003F0C5FDED2090
:102DD00003F0C8FD642003F0BFFD032003F0BCFD39
:102DE000122003F0B9FD812003F0B6FDE82003F0C6
:102DF000B9FD852003F0B0FD102003F0ADFD7A2071
:102E000003F0AAFDCB2003F0ADFD392003F0A4FDB3
:102E10002C2003F0A1FD002003F09EFD342003F0E0
:102E20009BFD022003F098FDF72003F09BFD20207E
:102E300003F092FDEA2003F095FD002003F08CFDE5
:102E4000002003F089FDC02003F08CFD1B2003F05F
:102E500083FDC12003F086FD012003F07DFDC52028
:102E600003F080FD302003F077FD302003F074FD87
:102E7000C72003F077FDB72003F06EFD362003F086
:102E800071FD482003F068FD3A2003F06BFD5520EA
:102E900003F062FDB12003F065FD002003F05CFD4E
:102EA0001A2003F059FDB62003F05CFD0A2003F060
:102EB00053FD00E0A3E0A22003F04EFDF22003F05A
:102EC00051FD002003F048FD262003F04BFD0120BA
:102ED00003F042FDE02003F045FD0F2003F03CFD30
:102EE0002A2003F039FD282003F036FD082003F0E6
:102EF00033FD0E2003F030FD082003F02DFD54209B
:102F000003F02AFDA92003F027FD432003F024FD50
:102F10000A2003F021FD0F2003F01EFD002003F026
:102F20001BFD002003F018FD002003F015FD00201C
:102F300003F012FDE12003F015FD002003F00CFD6D
:102F4000152003F009FD172003F006FD072003F00C
:102F500003FD112003F000FD062003F0FDFC2B20F3
:102F600003F0FAFC562003F0F7FC3C2003F0F4FCDD
:102F7000052003F0F1FC102003F0EEFC0F2003F01D
:102F8000EBFC3F200AE00000000C0140001401406F
:102F900000180140002001404C00002003F0DCFC40
:102FA0003F2003F0D9FC0F2003F0D6FC2B2003F0C8
:102FB000D9FC002003F0D0FC002003F0CDFC012060
:102FC00003F0CAFC3F2003F0C7FC2A2003F0CAFC30
:102FD000002003F0C1FC002003F0BEFC002003F041
:102FE000BBFCEF2003F0B8FC112003F0BBFC782001
:102FF00004F0F4FF292003F0B5FC03F020B9FE48EB
:10300000808846F6040188427ED1112003F0AAFC94
:10301000142004F0E3FFD02003F0A4FC072003F009
:103020009BFC422003F098FC1D2003F095FCD1206E
:1030300003F098FC002003F08FFC1A2003F08CFCB6
:10304000092003F089FCD22003F08CFC012003F05E
:1030500083FC222003F080FCC02003F083FC1020BE
:1030600003F07AFC3B2003F077FC002003F074FCB3
:10307000022003F071FC112003F06EFCC52003F068
:1030800071FC032003F068FCC82003F06BFC0020F7
:1030900003F062FC252003F05FFC212003F05CFCC0
:1030A000052003F059FC002003F056FC0A2003F031
:1030B00053FC652003F050FC252003F04DFC7720E5
:1030C00003F04AFC502003F047FC0F2003F044FCBF
:1030D000002003F041FCF82003F044FC012003F041
:1030E0003BFCFE2003F03EFC002003F035FC0220F8
:1030F00003F032FC202003F035FC362003F032FCD4
:10310000082003F029FC00E02AE03A2003F02AFC22
:10311000552003F021FC2B2003F024FC002003F0B9
:103120001BFC002003F018FC012003F015FC3F20DD
:1031300003F012FC2A2003F015FC002003F00CFC25
:10314000002003F009FC012003F006FCDF2003F05F
:1031500003FC782004F042FF292003F003FC4CE735
:10316000A548808845F21031884240F07C87ED20E8
:1031700003F0F8FB012003F0EFFBFE2003F0ECFB73
:10318000EE2003F0EFFBDE2003F0E6FB212003F04E
:10319000E3FBF12003F0E6FB012003F0DDFBDF2081
:1031A00003F0E0FB102003F0D7FBC42003F0DAFBB0
:1031B0008F2003F0D1FBC62003F0D4FB002003F0E6
:1031C000CBFBE22003F0C8FBE22003F0C5FBE220CA
:1031D00003F0C2FBBF2003F0C5FBAA2003F0BCFB39
:1031E000B02003F0BFFB0D2003F0B6FB002003F07E
:1031F000B3FB0D2003F0B0FB002003F0ADFB11206A
:1032000003F0AAFB002003F0A7FB192003F0A4FBA6
:10321000002003F0A1FB212003F09EFB002003F01F
:103220009BFB2D2003F098FB002003F095FB3D2035
:1032300003F092FB002003F08FFB5D2003F08CFB7A
:10324000002003F089FB5D2003F086FB002003F0E3
:1032500083FBB12003F086FB802003F07DFB002080
:1032600003F07AFB8B2003F077FB002003F074FB64
:10327000962003F071FB002003F06EFBB22003F0F8
:1032800071FB002003F068FB002003F065FB0220C7
:1032900003F062FB002003F05FFB032003F05CFB04
:1032A000002003F059FBB32003F05CFB002003F087
:1032B00053FB002003F050FB002003F04DFB0020E7
:1032C00003F04AFB002003F047FB002003F044FB1F
:1032D000002003F041FB002003F03EFB002003F040
:1032E0003BFB002003F038FB002003F035FB0020FF
:1032F00003F032FB002003F02FFB002003F02CFB37
:10330000002003F029FB002003F026FB002003F03F
:1033100023FB002003F020FB002003F01DFB002016
:1033200003F01AFB002003F017FB002003F014FB4E
:10333000002003F011FB002003F00EFBB42003F08B
:1033400011FB8B2003F008FB002003F005FB962007
:1033500003F002FB002003F0FFFAA12003F0FCFAC7
:10336000002003F0F9FAB52003F0FCFA022003F084
:10337000F3FA002003F0F0FA032003F0EDFA002046
:1033800003F0EAFA042003F0E7FA002003F0E4FA7D
:10339000B62003F0E7FA002003F0DEFA002003F085
:1033A000DBFAB72003F0DEFA002003F0D5FA0020A4
:1033B00003F0D2FA3F2003F0CFFA002003F0CCFA5A
:1033C0005E2003F0C9FA002003F0C6FA642003F07F
:1033D000C3FA002003F0C0FA8C2003F0BDFA0020ED
:1033E00003F0BAFAAC2003F0B7FA002003F0B4FA05
:1033F000DC2003F0B1FA01E04C000020002003F0D3
:10340000ABFA702003F0A8FA002003F0A5FA902090
:1034100003F0A2FA002003F09FFAEB2003F09CFADD
:10342000002003F099FADC2003F096FA002003F064
:1034300093FAB82003F096FA002003F08DFA0020EA
:1034400003F08AFA002003F087FA002003F084FAE0
:10345000002003F081FA002003F07EFA002003F040
:103460007BFA002003F078FABA2003F07BFA2420DC
:1034700003F072FA002003F06FFA002003F06CFAF8
:10348000002003F069FAC12003F06CFA202003F059
:1034900063FA002003F060FA542003F05DFA002084
:1034A00003F05AFAFF2003F057FA002003F054FA11
:1034B000C22003F057FA0A2003F04EFA002003F06E
:1034C0004BFA042003F048FA002003F045FAC32029
:1034D00003F048FA3C2003F03FFA002003F03CFAE6
:1034E0003A2003F039FA002003F036FA392003F0CD
:1034F00033FA002003F030FA372003F02DFA0020D1
:1035000003F02AFA3C2003F027FA002003F024FA03
:10351000362003F021FA002003F01EFA322003F0D7
:103520001BFA002003F018FA2F2003F015FA0020F0
:1035300003F012FA2C2003F00FFA002003F00CFA2B
:10354000292003F009FA002003F006FA262003F0F0
:1035500003FA002003F000FA242003F0FDF9002014
:1035600003F0FAF9242003F0F7F9002003F0F4F94E
:10357000232003F0F1F9002003F0EEF93C2003F0E2
:10358000EBF9002003F0E8F9362003F0E5F900201C
:1035900003F0E2F9322003F0DFF9002003F0DCF958
:1035A0002F2003F0D9F9002003F0D6F92C2003F0E6
:1035B000D3F9002003F0D0F9292003F0CDF9002041
:1035C00003F0CAF9262003F0C7F9002003F0C4F97C
:1035D000242003F0C1F9002003F0BEF9242003F0F9
:1035E000BBF9002003F0B8F9232003F0B5F900205F
:1035F00003F0B2F9C42003F0B5F9622003F0ACF98E
:10360000002003F0A9F9052003F0A6F9002003F03B
:10361000A3F9842003F0A0F9002003F09DF9F02025
:1036200003F09AF9002003F097F9182003F094F9B9
:10363000002003F091F9A42003F08EF9002003F09C
:103640008BF9182003F088F9002003F085F9502049
:1036500003F082F9002003F07FF90C2003F07CF9DD
:10366000002003F079F9172003F076F9002003F029
:1036700073F9952003F070F9002003F06DF9F32041
:1036800003F06AF9002003F067F9E62003F064F91B
:10369000002003F061F9C52003F064F9322003F043
:1036A0005BF9002003F058F9442003F055F900209D
:1036B00003F052F9652003F04FF9002003F04CF9B4
:1036C000762003F049F9002003F046F9882003F042
:1036D00043F9002003F040F9C62003F043F920200D
:1036E00003F03AF9002003F037F9172003F034F91A
:1036F000002003F031F9012003F02EF9002003F03F
:103700002BF9C72003F02EF9002003F025F9002043
:1037100003F022F9002003F01FF9002003F01CF948
:10372000C82003F01FF9002003F016F9002003F071
:1037300013F9002003F010F9002003F00DF9C9205F
:1037400003F010F9002003F007F9002003F004F95A
:10375000002003F001F9002003F0FEF8002003F040
:10376000FBF8002003F0F8F8002003F0F5F8002043
:1037700003F0F2F8002003F0EFF8002003F0ECF87B
:10378000002003F0E9F8002003F0E6F8002003F041
:10379000E3F8002003F0E0F8002003F0DDF800205B
:1037A00003F0DAF8E02003F0DDF8162003F0D4F897
:1037B000002003F0D1F81C2003F0CEF8002003F025
:1037C000CBF8212003F0C8F8002003F0C5F836201C
:1037D00003F0C2F8002003F0BFF8462003F0BCF865
:1037E000002003F0B9F8522003F0B6F8002003F0EF
:1037F000B3F8642003F0B0F8002003F0ADF87A20AD
:1038000003F0AAF8002003F0A7F88B2003F0A4F837
:10381000002003F0A1F8992003F09EF8002003F0A7
:103820009BF8A82003F098F8002003F095F8B92041
:1038300003F092F8002003F08FF8C42003F08CF816
:10384000002003F089F8CA2003F086F8002003F076
:1038500083F8D22003F080F8002003F07DF8D9200F
:1038600003F07AF8002003F077F8E02003F074F812
:10387000002003F071F8F32003F06EF8002003F04D
:103880006BF8E12003F06EF8162003F065F80020D5
:1038900003F062F81C2003F05FF8002003F05CF8EE
:1038A000222003F059F8002003F056F8362003F0E8
:1038B00053F8002003F050F8452003F04DF80020A5
:1038C00003F04AF8522003F047F8002003F044F8D0
:1038D000642003F041F8002003F03EF87A2003F062
:1038E0003BF8002003F038F88B2003F035F8002077
:1038F00003F032F8992003F02FF8002003F02CF8A1
:10390000A82003F029F8002003F026F8B92003F0DE
:1039100023F8002003F020F8C42003F01DF8002055
:1039200003F01AF8CA2003F017F8002003F014F887
:10393000D22003F011F8002003F00EF8D82003F095
:103940000BF8002003F008F8E02003F005F8002051
:1039500003F002F8F32002F0FFFF002002F0FCFF6A
:10396000E22002F0FFFF052002F0F6FF002002F047
:10397000F3FF0B2002F0F0FF002002F0EDFF1B2010
:1039800002F0EAFF002002F0E7FF342002F0E4FF3B
:10399000002002F0E1FF442002F0DEFF002002F0F0
:1039A000DBFF4F2002F0D8FF002002F0D5FF61209E
:1039B00002F0D2FF002002F0CFFF792002F0CCFF0E
:1039C000002002F0C9FF882002F0C6FF002002F0AC
:1039D000C3FF972002F0C0FF002002F0BDFFA62029
:1039E00002F0BAFF002002F0B7FFB72002F0B4FFE8
:1039F000002002F0B1FFC22002F0AEFF002002F072
:103A0000ABFFC72002F0A8FF002002F0A5FFD120E5
:103A100002F0A2FF002002F09FFFD62002F09CFFE0
:103A2000002002F099FFDD2002F096FF002002F056
:103A300093FFF32002F090FF002002F08DFFE320BF
:103A400002F090FF052002F087FF002002F084FFC3
:103A50000A2002F081FF002002F07EFF1C2002F00D
:103A60007BFF002002F078FF332002F075FF00207A
:103A700002F072FF442002F06FFF002002F06CFFA2
:103A8000502002F069FF002002F066FF622002F081
:103A900063FF002002F060FF782002F05DFF00204D
:103AA00002F05AFF882002F057FF002002F054FF76
:103AB000972002F051FF002002F04EFFA62002F0F6
:103AC0004BFF002002F048FFB72002F045FF002026
:103AD00002F042FFC22002F03FFF002002F03CFF54
:103AE000C72002F039FF002002F036FFD12002F09B
:103AF00033FF002002F030FFD52002F02DFF002020
:103B000002F02AFFDD2002F027FF002002F024FF50
:103B1000F32002F021FF002002F01EFFE42002F05B
:103B200021FF012002F018FF002002F015FF012004
:103B300002F012FF002002F00FFF022002F00CFF43
:103B4000002002F009FF2A2002F006FF002002F008
:103B500003FF3C2002F000FF002002F0FDFE4B209E
:103B600002F0FAFE002002F0F7FE5D2002F0F4FE03
:103B7000002002F0F1FE742002F0EEFE002002F0C0
:103B8000EBFE842002F0E8FE002002F0E5FE932028
:103B900002F0E2FE002002F0DFFEA22002F0DCFED6
:103BA000002002F0D9FEB32002F0D6FE002002F081
:103BB000D3FEBE2002F0D0FE002002F0CDFEC420D5
:103BC00002F0CAFE002002F0C7FECD2002F0C4FEC3
:103BD000002002F0C1FED32002F0BEFE002002F061
:103BE000BBFEDD2002F0B8FE002002F0B5FEF3209F
:103BF00002F0B2FE002002F0AFFEE52002F0B2FEBD
:103C0000002002F0A9FE002002F0A6FE002002F033
:103C1000A3FE002002F0A0FE022002F09DFE002084
:103C200002F09AFE292002F097FE002002F094FE96
:103C30003C2002F091FE002002F08EFE4B2002F0AC
:103C40008BFE002002F088FE5D2002F085FE002041
:103C500002F082FE742002F07FFE002002F07CFE63
:103C6000842002F079FE002002F076FE932002F01C
:103C700073FE002002F070FEA22002F06DFE002014
:103C800002F06AFEB32002F067FE002002F064FE3C
:103C9000BE2002F061FE002002F05EFEC42002F0B1
:103CA0005BFE002002F058FECD2002F055FE002001
:103CB00002F052FED32002F04FFE002002F04CFE34
:103CC000DC2002F049FE002002F046FEF32002F064
:103CD00043FE002002F040FEE62002F043FE1120E9
:103CE00002F03AFE002002F037FE342002F034FEEB
:103CF000002002F031FE562002F02EFE002002F0DD
:103D00002BFE762002F028FE002002F025FE772010
:103D100002F022FE002002F01FFE662002F01CFED0
:103D2000002002F019FE882002F016FE002002F0AA
:103D300013FE992002F010FE002002F00DFEBB20C1
:103D400002F00AFE002002F007FE992002F004FEB5
:103D5000002002F001FE662002F0FEFD002002F0CD
:103D6000FBFD552002F0F8FD002002F0F5FD552086
:103D700002F0F2FD002002F0EFFD452002F0ECFD24
:103D8000002002F0E9FD432002F0E6FD002002F0F1
:103D9000E3FD442002F0E0FD002002F0DDFDE7201D
:103DA00002F0E0FD322002F0D7FD002002F0D4FD49
:103DB000552002F0D1FD002002F0CEFD762002F069
:103DC000CBFD002002F0C8FD662002F0C5FD0020FA
:103DD00002F0C2FD672002F0BFFD002002F0BCFD32
:103DE000672002F0B9FD002002F0B6FD872002F046
:103DF000B3FD002002F0B0FD992002F0ADFD0020DF
:103E000002F0AAFDBB2002F0A7FD002002F0A4FDF5
:103E1000992002F0A1FD002002F09EFD772002F023
:103E20009BFD002002F098FD442002F095FD00204B
:103E300002F092FD562002F08FFD002002F08CFD72
:103E4000232002F089FD002002F086FD332002F0DD
:103E500083FD002002F080FD452002F07DFD002062
:103E600002F07AFDE82002F07DFD002002F074FDF2
:103E7000002002F071FD992002F06EFD002002F09A
:103E80006BFD872002F068FD002002F065FD8820B0
:103E900002F062FD002002F05FFD772002F05CFD81
:103EA000002002F059FD662002F056FD002002F0CD
:103EB00053FD882002F050FD002002F04DFDAA20A5
:103EC00002F04AFD002002F047FDBB2002F044FD55
:103ED000002002F041FD992002F03EFD002002F09A
:103EE0003BFD662002F038FD002002F035FD552034
:103EF00002F032FD002002F02FFD552002F02CFDD3
:103F0000002002F029FD442002F026FD002002F0EE
:103F100023FD442002F020FD002002F01DFD55206D
:103F200002F01AFD002002F017FDE92002F01AFD50
:103F3000AA2002F011FD002002F00EFD002002F088
:103F40000BFD002002F008FD002002F00BFDAA206E
:103F500002F002FDCF2002F005FD002002F0FCFC83
:103F6000002002F0F9FC002002F0F6FC002002F034
:103F7000F3FC002002F0F0FC002002F0EDFC002039
:103F800002F0EAFC002002F0E7FC002002F0E4FC72
:103F9000002002F0E1FC002002F0DEFC002002F034
:103FA000DBFC002002F0D8FC002002F0D5FC002051
:103FB00002F0D2FC002002F0CFFC002002F0CCFC8A
:103FC000F02002F0CFFC002002F0C6FC502002F0EE
:103FD000C3FC002002F0C0FC002002F0BDFC002069
:103FE00002F0BAFCF32002F0BDFC002002F0B4FCA9
:103FF000F92002F0B7FC062002F0AEFC102002F01F
:10400000ABFC292002F0A8FC002002F0A5FC3A201D
:1040100002F0A8FC552002F09FFC112002F0A2FC47
:10402000642003F0DBFF292002F09CFC352002F025
:1040300099FC002002F090FC512002F093FCFF203C
:1040400002F08AFC532002F08DFC2C2002F084FC4C
:10405000552002F087FC822002F07EFC2C2002F02A
:1040600081FC02F0ECB8FE48808845F2105188428D
:104070007ED155214FF4704002F084FCAA214FF20A
:10408000010002F07FFC52214FF2020002F07AFCA4
:1040900008214FF2030002F075FC01214FF20400E9
:1040A00002F070FC0D214FF4304002F06BFC0D214A
:1040B0004BF2010002F066FC0D214BF2020002F00F
:1040C00061FC34214FF4364002F05CFC34214BF2A9
:1040D000016002F057FC34214BF2026002F052FC06
:1040E0000D214FF4314002F04DFC0D214BF2011037
:1040F00002F048FC0D214BF2021002F043FC342187
:104100004FF4374002F03EFC34214BF2017002F0D4
:1041100039FC34214BF2027002F034FC00214FF4E0
:10412000324002F02FFC00214BF2012002F02AFC69
:1041300000214BF2022002F025FC24214FF43840EC
:1041400002F020FC24214BF6010002F01BFC24218C
:104150004BF6020002F016FC01214FF43F4002F042
:1041600011FC0F214FF4334002F00CFC0F2100E052
:10417000FEE34BF2013002F005FC0F214BF202305E
:1041800002F000FC34214FF4394002F0FBFB3421F3
:104190004BF6011002F0F6FB34214BF6021002F050
:1041A000F1FB08214FF4354002F0ECFB08214BF203
:1041B000015002F0E7FB08214BF2025002F0E2FB53
:1041C00003214FF4424002F0DDFB24214FF43A403A
:1041D00002F0D8FB24214BF6012002F0D3FB24216E
:1041E0004BF6022002F0CEFB00214FF43C4002F0DF
:1041F000C9FB78214BF6014002F0C4FB00214BF6CD
:10420000024002F0BFFB00214FF43D4002F0BAFB38
:1042100078214BF6015002F0B5FB00214BF602501D
:1042200002F0B0FB00214FF43E4002F0ABFB6421F2
:104230004BF6016002F0A6FB00214FF4514002F062
:10424000A1FB33214DF2011002F09CFB00214DF245
:10425000021002F097FB34214DF2031002F092FBA2
:1042600000214DF2041002F08DFB3A214DF20510B1
:1042700002F088FB00214DF2061002F083FB4A2178
:104280004DF2071002F07EFB00214DF2081002F003
:1042900079FB5C214DF2091002F074FB00214DF214
:1042A0000A1002F06FFB81214DF20B1002F06AFB45
:1042B00000214DF20C1002F065FBA6214DF20D100D
:1042C00002F060FB00214DF20E1002F05BFBE521D5
:1042D0004DF20F1002F056FB01214DF2101002F0CA
:1042E00051FB13214DF2111002F04CFB01214DF254
:1042F000121002F047FB54214DF2131002F042FB62
:1043000001214DF2141002F03DFB82214DF21510F7
:1043100002F038FB01214DF2161002F033FBCA21E6
:104320004DF2171002F02EFB02214DF2181002F090
:1043300029FB00214DF2191002F024FB02214DF25D
:104340001A1002F01FFB01214DF21B1002F01AFBA4
:1043500002214DF21C1002F015FB34214DF21D100C
:1043600002F010FB02214DF21E1002F00BFB672140
:104370004DF21F1002F006FB02214DF2201002F058
:1043800001FB84214DF2211002F0FCFA02214DF2D2
:10439000221002F0F7FAA4214DF2231002F0F2FAF3
:1043A00002214DF2241002F0EDFAB7214DF2251052
:1043B00002F0E8FA02214DF2261002F0E3FACF21D2
:1043C0004DF2271002F0DEFA02214DF2281002F021
:1043D000D9FADE214DF2291002F0D4FA02214DF271
:1043E0002A1002F0CFFAF2214DF22B1002F0CAFA95
:1043F00002214DF22C1002F0C5FAFE214DF22D10D3
:1044000002F0C0FA03214DF22E1002F0BBFA102187
:104410004DF22F1002F0B6FA03214DF2301002F0E7
:10442000B1FA33214DF2311002F0ACFA03214DF212
:10443000321002F0A7FA6D214DF2331002F0A2FA09
:1044400000214FF4524002F09DFA33214DF2012039
:1044500002F098FA00214DF2022002F093FA01E0F6
:104460004C00002034214DF2032002F08BFA002191
:104470004DF2042002F086FA3A214DF2052002F0B6
:1044800081FA00214DF2062002F07CFA4A214DF219
:10449000072002F077FA00214DF2082002F072FAAC
:1044A0005C214DF2092002F06DFA00214DF20A2044
:1044B00002F068FA81214DF20B2002F063FA00212C
:1044C0004DF20C2002F05EFAA6214DF20D2002F012
:1044D00059FA00214DF20E2002F054FAE5214DF276
:1044E0000F2002F04FFA01214DF2102002F04AFA9B
:1044F00013214DF2112002F045FA01214DF2122054
:1045000002F040FA54214DF2132002F03BFA01214F
:104510004DF2142002F036FA82214DF2152002F0FD
:1045200031FA01214DF2162002F02CFACA214DF287
:10453000172002F027FA02214DF2182002F022FA89
:1045400000214DF2192002F01DFA02214DF21A202D
:1045500002F018FA01214DF21B2002F013FA022199
:104560004DF21C2002F00EFA34214DF21D2002F013
:1045700009FA02214DF21E2002F004FA67214DF2E1
:104580001F2002F0FFF902214DF2202002F0FAF97B
:1045900084214DF2212002F0F5F902214DF2222072
:1045A00002F0F0F9A4214DF2232002F0EBF90221F0
:1045B0004DF2242002F0E6F9B7214DF2252002F059
:1045C000E1F902214DF2262002F0DCF9CF214DF273
:1045D000272002F0D7F902214DF2282002F0D2F96B
:1045E000DE214DF2292002F0CDF902214DF22A20E0
:1045F00002F0C8F9F2214DF22B2002F0C3F902219A
:104600004DF22C2002F0BEF9FE214DF22D2002F0D9
:10461000B9F903214DF22E2002F0B4F910214DF228
:104620002F2002F0AFF903214DF2302002F0AAF959
:1046300033214DF2312002F0A5F903214DF2322051
:1046400002F0A0F96D214DF2332002F09BF9002118
:104650004FF4534002F096F933214DF2013002F04D
:1046600091F900214DF2023002F08CF934214DF223
:10467000033002F087F900214DF2043002F082F994
:104680003A214DF2053002F07DF900214DF206305D
:1046900002F078F94A214DF2073002F073F9002157
:1046A0004DF2083002F06EF95C214DF2093002F053
:1046B00069F900214DF20A3002F064F981214DF2CE
:1046C0000B3002F05FF900214DF20C3002F05AF984
:1046D000A6214DF20D3002F055F900214DF20E30B9
:1046E00002F050F9E5214DF20F3002F04BF90121B3
:1046F0004DF2103002F046F913214DF2113002F064
:1047000041F901214DF2123002F03CF954214DF2F1
:10471000133002F037F901214DF2143002F032F972
:1047200082214DF2153002F02DF901214DF21630A3
:1047300002F028F9CA214DF2173002F023F90221C4
:104740004DF2183002F01EF900214DF2193002F03E
:1047500019F902214DF21A3002F014F901214DF23B
:104760001B3002F00FF902214DF21C3002F00AF961
:1047700034214DF21D3002F005F902214DF21E30B8
:1047800002F000F967214DF21F3002F0FBF8022120
:104790004DF2203002F0F6F884214DF2213002F083
:1047A000F1F802214DF2223002F0ECF8A4214DF292
:1047B000233002F0E7F802214DF2243002F0E2F853
:1047C000B7214DF2253002F0DDF802214DF22630FE
:1047D00002F0D8F8CF214DF2273002F0D3F80221B1
:1047E0004DF2283002F0CEF8DE214DF2293002F0F1
:1047F000C9F802214DF22A3002F0C4F8F2214DF23C
:104800002B3002F0BFF802214DF22C3002F0BAF842
:10481000FE214DF22D3002F0B5F803214DF22E307D
:1048200002F0B0F810214DF22F3002F0ABF8032166
:104830004DF2303002F0A6F833214DF2313002F063
:10484000A1F803214DF2323002F09CF86D214DF2B7
:10485000333002F097F800214FF4544002F092F800
:1048600033214DF2014002F08DF800214DF202405B
:1048700002F088F834214DF2034002F083F8002161
:104880004DF2044002F07EF83A214DF2054002F06C
:1048900079F800214DF2064002F074F84A214DF2F9
:1048A000074002F06FF800214DF2084002F06AF86C
:1048B0005C214DF2094002F065F800214DF20A40FA
:1048C00002F060F881214DF20B4002F05BF800210C
:1048D0004DF20C4002F056F8A6214DF20D4002F0C8
:1048E00051F800214DF20E4002F04CF8E5214DF256
:1048F0000F4002F047F801214DF2104002F042F85B
:1049000013214DF2114002F03DF801214DF2124009
:1049100002F038F854214DF2134002F033F801212F
:104920004DF2144002F02EF882214DF2154002F0B3
:1049300029F801214DF2164002F024F8CA214DF267
:10494000174002F01FF802214DF2184002F01AF849
:1049500000214DF2194002F015F802214DF21A40E3
:1049600002F010F801214DF21B4002F00BF800E0BC
:1049700004E302214DF21C4002F004F834214DF210
:104980001D4001F0FFFF02214DF21E4001F0FAFF31
:1049900067214DF21F4001F0F5FF02214DF220404A
:1049A00001F0F0FF84214DF2214001F0EBFF0221E4
:1049B0004DF2224001F0E6FFA4214DF2234001F028
:1049C000E1FF02214DF2244001F0DCFFB7214DF25E
:1049D000254001F0D7FF02214DF2264001F0D2FF21
:1049E000CF214DF2274001F0CDFF02214DF22840AA
:1049F00001F0C8FFDE214DF2294001F0C3FF022182
:104A00004DF22A4001F0BEFFF2214DF22B4001F0A1
:104A1000B9FF02214DF22C4001F0B4FFFE214DF20E
:104A20002D4001F0AFFF03214DF22E4001F0AAFF0F
:104A300010214DF22F4001F0A5FF03214DF230402F
:104A400001F0A0FF33214DF2314001F09BFF032123
:104A50004DF2324001F096FF6D214DF2334001F0EE
:104A600091FF00214FF4554001F08CFF33214DF2AE
:104A7000015001F087FF00214DF2025001F082FF4A
:104A800034214DF2035001F07DFF00214DF204501E
:104A900001F078FF3A214DF2055001F073FF00213B
:104AA0004DF2065001F06EFF4A214DF2075001F021
:104AB00069FF00214DF2085001F064FF5C214DF2C6
:104AC000095001F05FFF00214DF20A5001F05AFF3A
:104AD00081214DF20B5001F055FF00214DF20C5099
:104AE00001F050FFA6214DF20D5001F04BFF0021C7
:104AF0004DF20E5001F046FFE5214DF20F5001F04E
:104B000041FF01214DF2105001F03CFF13214DF205
:104B1000115001F037FF01214DF2125001F032FF28
:104B200054214DF2135001F02DFF01214DF214508C
:104B300001F028FF82214DF2155001F023FF0121E1
:104B40004DF2165001F01EFFCA214DF2175001F030
:104B500019FF02214DF2185001F014FF00214DF20F
:104B6000195001F00FFF02214DF21A5001F00AFF17
:104B700001214DF21B5001F005FF02214DF21C50A6
:104B800001F000FF34214DF21D5001F0FBFE022127
:104B90004DF21E5001F0F6FE67214DF21F5001F05C
:104BA000F1FE02214DF2205001F0ECFE84214DF285
:104BB000215001F0E7FE02214DF2225001F0E2FE09
:104BC000A4214DF2235001F0DDFE02214DF22450CC
:104BD00001F0D8FEB7214DF2255001F0D3FE02219D
:104BE0004DF2265001F0CEFECF214DF2275001F0BC
:104BF000C9FE02214DF2285001F0C4FEDE214DF223
:104C0000295001F0BFFE02214DF22A5001F0BAFEF8
:104C1000F2214DF22B5001F0B5FE02214DF22C5045
:104C200001F0B0FEFE214DF22D5001F0ABFE03214C
:104C30004DF22E5001F0A6FE10214DF22F5001F042
:104C4000A1FE03214DF2305001F09CFE33214DF2C4
:104C5000315001F097FE03214DF2325001F092FEE7
:104C60006D214DF2335001F08DFE00214FF456407E
:104C700001F088FE33214DF2016001F083FE002136
:104C80004DF2026001F07EFE34214DF2036001F02E
:104C900079FE00214DF2046001F074FE3A214DF2DC
:104CA000056001F06FFE00214DF2066001F06AFE22
:104CB0004A214DF2076001F065FE00214DF20860C7
:104CC00001F060FE5C214DF2096001F05BFE002105
:104CD0004DF20A6001F056FE81214DF20B6001F0A9
:104CE00051FE00214DF20C6001F04CFEA6214DF268
:104CF0000D6001F047FE00214DF20E6001F042FE12
:104D0000E5214DF20F6001F03DFE01214DF21060F2
:104D100001F038FE13214DF2116001F033FE012144
:104D20004DF2126001F02EFE54214DF2136001F09D
:104D300029FE01214DF2146001F024FE82214DF282
:104D4000156001F01FFE01214DF2166001F01AFE00
:104D5000CA214DF2176001F015FE02214DF21860D4
:104D600001F010FE00214DF2196001F00BFE02214E
:104D70004DF21A6001F006FE01214DF21B6001F0B8
:104D800001FE02214DF21C6001F0FCFD34214DF2C8
:104D90001D6001F0F7FD02214DF21E6001F0F2FDF1
:104DA00067214DF21F6001F0EDFD02214DF2206000
:104DB00001F0E8FD84214DF2216001F0E3FD0221C4
:104DC0004DF2226001F0DEFDA4214DF2236001F0DE
:104DD000D9FD02214DF2246001F0D4FDB7214DF23E
:104DE000256001F0CFFD02214DF2266001F0CAFDE1
:104DF000CF214DF2276001F0C5FD02214DF2286060
:104E000001F0C0FDDE214DF2296001F0BBFD022161
:104E10004DF22A6001F0B6FDF2214DF22B6001F057
:104E2000B1FD02214DF22C6001F0ACFDFE214DF2EE
:104E30002D6001F0A7FD03214DF22E6001F0A2FDCF
:104E400010214DF22F6001F09DFD03214DF23060E5
:104E500001F098FD33214DF2316001F093FD032103
:104E60004DF2326001F08EFD6D214DF2336001F0A4
:104E700089FD55214FF4704001F084FDAA214FF2C5
:104E8000010001F07FFD52214FF2020001F07AFD96
:104E900008214FF2030001F075FD00214FF20400DC
:104EA00001F070FDCC214FF4314001F06BFD002189
:104EB0004BF2011001F066FD05214FF4364001F080
:104EC00061FD70214FF4374001F05CFD70214BF221
:104ED000017001F057FD01214FF4384001F052FDFF
:104EE00003214BF6010001F04DFD03214BF60200BA
:104EF00001F048FD03214BF6030001F043FD0221C0
:104F00004FF43C4001F03EFD00214BF6014001F022
:104F100039FD00214BF6024001F034FDD0214FF461
:104F2000494001F02FFD02214CF6011001F02AFD4D
:104F300050214CF6021001F025FD50214CF60310D3
:104F400001F020FD50214CF6041001F01BFD002162
:104F50004FF4545001F016FD55214FF4685001F004
:104F600011FD4FF4885001F0FDFC782003F05CF84F
:104F70004FF4245001F0F6FC01F061B9FE4880883E
:104F800049F2253188427DD147F6F001E52001F054
:104F9000F9FC4FF48071012001F0F4FC4FF4E06162
:104FA000022001F0EFFC41F23001032001F0EAFCA5
:104FB0000021042001F0E6FC40F20221082001F06B
:104FC000E1FC0021092001F0DDFC00210A2001F0B4
:104FD000D9FC00210C2001F0D5FC00210D2001F0AE
:104FE000D1FC00210F2001F0CDFC0021102001F0A8
:104FF000C9FC0721112001F0C5FC0021122001F09D
:10500000C1FC0021132001F0BDFC0021072001F0AC
:10501000B9FC41F29061102001F0B4FC40F227216C
:10502000112001F0AFFC9D21122001F0ABFC4FF4E8
:10503000C851132001F0A6FC2521292001F0A2FC73
:105040000D212B2001F09EFC0721302001F09AFC5D
:1050500040F20331312001F095FC0321322001F0B0
:1050600091FC40F20621352001F08CFC082136200D
:1050700001F088FC40F20641372001F083FC4FF438
:10508000417100E058E0382001F07CFC0721392014
:1050900001F078FC40F202613C2001F073FC082131
:1050A0003D2001F06FFC0021502001F06BFCEF214E
:1050B000512001F067FC0021522001F063FC40F216
:1050C0003F11532001F05EFC4FF42741602001F0B6
:1050D00059FC0121612001F055FC00216A2001F0FA
:1050E00051FC0021802001F04DFC0021812001F0C5
:1050F00049FC0021822001F045FC0021832001F0C1
:1051000041FC0021842001F03DFC0021852001F0BC
:1051100039FC1021902001F035FC4FF4C061922041
:1051200001F030FC40F23311072001F02BFC22216A
:10513000002001F027FC1FE78F48808849F22831C2
:1051400088427DD141F28F01EC2001F01BFC41F23D
:105150003421EF2001F016FC4FF48071012001F0A2
:1051600011FC4FF4E061022001F00CFC41F230012F
:10517000032001F007FC0021042001F003FC40F2B1
:105180000221082001F0FEFB0021092001F0FAFBBA
:1051900000210A2001F0F6FB01210C2001F0F2FBB6
:1051A00000210D2001F0EEFB00210F2001F0EAFBB1
:1051B0000021102001F0E6FB0721112001F0E2FBA5
:1051C0000021122001F0DEFB0021132001F0DAFBA8
:1051D0000121072001F0D6FB322002F0FFFE41F250
:1051E0009041102001F0CEFB40F22721112001F068
:1051F000C9FB322002F0F2FE8A21122001F0C2FB2C
:10520000322002F0EBFE4FF4D051132001F0BAFB34
:105210000621292001F0B6FB0D212B2001F0B2FB65
:10522000322002F0DBFE0021202001F0ABFB002148
:10523000212001F0A7FB322002F0D0FE002100E087
:1052400075E0302001F09EFB40F20461312001F056
:1052500099FB40F20531322001F094FB002135200A
:1052600001F090FB40F60941362001F08BFB4FF432
:105270000171372001F086FB40F20131382001F046
:1052800081FB40F20771392001F07CFB00213C20BA
:1052900001F078FB40F60A213D2001F073FB32203B
:1052A00002F09CFE0021502001F06CFBEF21512008
:1052B00001F068FB0021522001F064FB40F23F1135
:1052C000532001F05FFB4FF42741602001F05AFBAF
:1052D0000121612001F056FB00216A2001F052FB00
:1052E0000021802001F04EFB0021812001F04AFBCB
:1052F0000021822001F046FB0021832001F042FBC7
:105300000021842001F03EFB0021852001F03AFBC2
:105310001021902001F036FB4FF4C061922001F083
:1053200031FB40F23311072001F02CFB24E6124838
:10533000808849F2203188427ED10021084601F060
:1053400021FB4FF48071012001F01CFB4FF4E06160
:10535000022001F017FB41F23001032001F012FBA3
:105360000021042001F00EFB40F20221082001F090
:1053700009FB0021092001E04C00002001F002FBA4
:1053800000210A2001F0FEFA01210C2001F0FAFAB6
:1053900000210D2001F0F6FA00210F2001F0F2FAB1
:1053A000322002F01BFE40F20111072001F0EAFA60
:1053B000322002F013FE4FF48651102001F0E2FA81
:1053C0000721112001F0DEFA4FF48871122001F05C
:1053D000D9FA4FF43061132001F0D4FA00212920CA
:1053E00001F0D0FA44F210012B2001F0CBFA002199
:1053F000502001F0C7FAEF21512001F0C3FA00213B
:10540000522001F0BFFA40F23F11532001F0BAFAE6
:105410004FF41C51602001F0B5FA0121612001F028
:10542000B1FA00216A2001F0ADFA0021802001F0DC
:10543000A9FA0021812000E030E001F0A3FA002168
:10544000822001F09FFA0021832001F09BFA0021C5
:10545000842001F097FA0021852001F093FA1021B1
:10546000902001F08FFA0021922001F08BFA0121A7
:10547000932001F087FA4FF48871952001F082FAA9
:105480000021972001F07EFA0021982001F07AFA9D
:1054900040F27311072001F075FA6DE5FE4880882F
:1054A00049F2313188427DD141F21401E72001F007
:1054B00069FA4FF48071012001F064FA4FF4007131
:1054C000022001F05FFA41F23801032001F05AFA9C
:1054D00040F20221082001F055FA0021092001F0D4
:1054E00051FA00210A2001F04DFA00210C2001F0B0
:1054F00049FA00210D2001F045FA00210F2001F0AA
:1055000041FA0021102001F03DFA0721112001F09D
:1055100039FA0021122001F035FA0021132001F0A0
:1055200031FAC82002F05AFD41F29061102001F0DA
:1055300029FA40F22721112001F024FA322002F04A
:105540004DFD0C21122001F01DFA322002F046FD23
:105550004FF40061132001F015FA1121292001F008
:1055600011FA0B212B2001F00DFA322002F036FD4A
:105570000021202001F006FA40F23F11212001F025
:1055800001FA0021302001F0FDF94FF48371312040
:1055900001F0F8F90021322001F0F4F94FF4017123
:1055A000352000E064E001F0EDF941F20A613620B7
:1055B00001F0E8F940F20771372001F0E3F94FF408
:1055C0008371382001F0DEF940F20771392001F0D3
:1055D000D9F940F202413C2001F0D4F940F60F41E4
:1055E0003D2001F0CFF90021502001F0CBF9EF214F
:1055F000512001F0C7F90021522001F0C3F940F217
:105600003F11532001F0BEF94FF41C51602001F00E
:10561000B9F90121612001F0B5F900216A2001F0FA
:10562000B1F90021802001F0ADF90021812001F0C5
:10563000A9F90021822001F0A5F90021832001F0C1
:10564000A1F90021842001F09DF90021852001F0BD
:1056500099F91021902001F095F94FF4C061922042
:1056600001F090F940F23311072001F08BF983E447
:105670008948808845F2084188427DD14FF4807185
:10568000012001F07FF94FF4E061022001F07AF986
:1056900041F23001032001F075F90021042001F0EE
:1056A00071F940F20721082001F06CF9002109206E
:1056B00001F068F900210A2001F064F900210C20B2
:1056C00001F060F900210D2001F05CF900210F20AC
:1056D00001F058F9142002F081FC41F2B061102071
:1056E00001F050F90121112001F04CF9012117209E
:1056F00001F048F94FF49C71122001F043F94FF486
:105700000061132001F03EF90921292001F03AF946
:1057100009212A2001F036F90021A42001F032F9F4
:105720000021502001F02EF9EF21512001F02AF93B
:105730000021522001F026F940F23F11532001F0E0
:1057400021F94FF41C51602001F01CF90121612066
:1057500001F018F900216A2001F014F900218020DD
:1057600001F010F90021812001F00CF900218220C4
:1057700001F008F9002100E024E0832001F002F9A3
:105780000021842001F0FEF80021852001F0FAF8C4
:105790001321902001F0F6F80021922001F0F2F898
:1057A0000321932001F0EEF84FF48871952001F069
:1057B000E9F840F27311072001F0E4F8322002F01A
:1057C0000DFCB8E43448808841F2055188427DD10F
:1057D0000021072001F0D6F8322002F0FFFB4FF441
:1057E0008E71122001F0CEF80121A42001F0CAF838
:1057F0000F21082001F0C6F808210A2001F0C2F8A4
:1058000008210D2001F0BEF840F20771302001F0B0
:10581000B9F80721312001F0B5F840F203613220D8
:1058200001F0B0F84FF4E061332001F0ABF840F242
:105830000221342001F0A6F80221352001F0A2F85F
:1058400041F60F71362001F09DF840F207713720C4
:1058500001F098F80021382001F094F80021392057
:1058600001F090F840F207713A2001F08BF8002126
:105870003B2001F087F807213C2001F083F800214C
:105880003D2001F07FF8322002F0A8FB0121072023
:1058900001F078F8012101E04C000020172001F010
:1058A00071F8322002F09AFB4FF4BD51102001F044
:1058B00069F840F21721112001F064F84FF48F715C
:1058C000122001F05FF84FF4706100E098E01320BF
:1058D00001F058F800212A2001F054F80A2129206B
:1058E00001F050F84FF49F71122001F04BF80021A5
:1058F000502001F047F8EF21512001F043F800213A
:10590000522001F03FF840F23F11532001F03AF8E5
:105910004FF41C51602001F035F80121612001F0A5
:1059200031F800216A2001F02DF80021802001F0DB
:1059300029F80021812001F025F80021822001F0C2
:1059400021F80021832001F01DF80021842001F0BE
:1059500019F80021852001F015F81321902001F09D
:1059600011F84FF44071922001F00CF805219320BA
:1059700001F008F80021952001F004F8002197209B
:1059800001F000F80021982000F0FCFF4FF4807136
:10599000012000F0F7FF4FF4E061022000F0F2FF79
:1059A00041F23801032000F0EDFF0021042000F057
:1059B000E9FF00210C2000F0E5FF00210F2000F09E
:1059C000E1FF0021202000F0DDFF0021212000F078
:1059D000D9FF2121072000F0D5FF142002F0FEFAA4
:1059E0006121072000F0CEFF142002F0F7FA40F208
:1059F0007311072000F0C6FF142002F0EFFA95E4BF
:105A0000FE4880884BF2055188427CD1002108462F
:105A100000F0B8FF0021084600F0B4FF002108465E
:105A200000F0B0FF0021084600F0ACFF0121A420E7
:105A300000F0A8FF142002F0D1FA4FF41C516020AE
:105A400000F0A0FF40F20221082000F09BFF4FF47D
:105A50000571302000F096FF43F21571312000F0FF
:105A600091FF40F20461322000F08CFF40F6166195
:105A7000332000F087FF42F21121342000F082FF32
:105A80004FF4A851352000F07DFF48F20751362031
:105A900000F078FF41F20741372000F073FF41F238
:105AA0000341382000F06EFF2021392000F06AFF0A
:105AB0001A21902000F066FF0021102000F062FF04
:105AC0000721112000F05EFF0021122000F05AFF94
:105AD0000021132000F056FF142002F07FFA4FF44B
