:020000040800F2
:10000000C806002079020008B36A0008BB25000872
:10001000AF6A00080D1C000879800008000000008D
:10002000000000000000000000000000796E0008E1
:10003000D11E000800000000FD6D00088D6F000853
:10004000930200089302000893020008930200083C
:10005000930200089302000893020008930200082C
:10006000930200089302000893020008930200081C
:10007000930200089302000893020008930200080C
:1000800093020008930200089302000893020008FC
:1000900093020008930200089302000893020008EC
:1000A00093020008930200089302000893020008DC
:1000B00093020008F16F0008930200089302000801
:1000C00093020008930200089302000893020008BC
:1000D00093020008930200089302000893020008AC
:1000E000930200089302000893020008930200089C
:1000F000930200089302000893020008930200088C
:10010000930200089302000893020008930200087B
:10011000930200089302000893020008930200086B
:10012000930200089302000893020008930200085B
:1001300000F002F800F090F80AA090E8000C824469
:100140008344AAF10107DA4501D100F085F8AFF246
:10015000090EBAE80F0013F0010F18BFFB1A43F0A5
:1001600001031847C8160100E8160100103A24BF21
:1001700078C878C1FAD8520724BF30C830C144BF0C
:1001800004680C607047000000230024002500264E
:10019000103A28BF78C1FBD8520728BF30C148BFEA
:1001A0000B6070476E2900F08581702900F0C782CE
:1001B000662909F08883652909F08583672909F094
:1001C00082836129AFF3008003681B0A28BF41F0D6
:1001D0008001692900F03281642900F02F8175299E
:1001E00000F02C816F2900F05582782900F093826D
:1001F000E92900F0EF81E42900F0EC81F52900F015
:10020000E981EF2900F05282F82900F09282036818
:10021000DB0928BF41F08001632900F018867329AB
:1002200000F01D86E32900F02886F32900F02D86D2
:10023000002070471FB500F07FFE04000020002161
:1002400008F050FA401C60600020002108F034FAE9
:10025000E0601FBD10B510BD00F040FE1146FFF775
:10026000E9FF08F081F800F019FF03B4FFF7F2FF8F
:1002700003BC00F019FF0000094880470948004707
:10028000FEE7FEE7FEE7FEE7FEE7FEE7FEE7FEE746
:10029000FEE7FEE704480549054A064B70470000A3
:1002A000916F000831010008C8000020C806002036
:1002B000C8020020C80200201CB50C46064B7B4437
:1002C00069460090204600F00EF904460020694679
:1002D00000F01CF920461CBD4B0200004FF0013C11
:1002E00050F8042B51F8043B9A4221D1A2EB0C03A5
:1002F000934313EACC1317D150F8042B51F8043B65
:100300009A4215D1A2EB0C03934313EACC130BD101
:1003100050F8042B51F8043B9A4209D1A2EB0C038C
:10032000934313EACC13DBD04FF00000704700BFBB
:10033000D01A01BAB1FA81F101F0180122FA01F0E4
:10034000CB40C1F12001DBB2C0B2C01A2CFA01F3DC
:10035000D11A914311EAC311E6D170477047704733
:10036000704710B500F0BAFA006810BD10B5044629
:1003700000F0B4FA046010BD70B5044685690068E9
:10038000C10601D5302600E02026C00707D070BD89
:10039000D4E9012130469047206A401C20626D1E3E
:1003A000F6D570BD70B5044685690078C00707D1E1
:1003B00070BDD4E9012120209047206A401C2062B2
:1003C0006D1EF6D570BD09684A0501D540B270476B
:1003D000C905FCD500B2704709684A0501D5C0B20D
:1003E0007047C905FCD580B2704770B50C4605460C
:1003F000012A05D02878800600D5EA69002302E0AA
:10040000012305E05B1C934202D2E05C0028F9D195
:10041000A869E618C01AA861286A18442862284604
:10042000FFF7AAFF04E0D5E9012114F8010B90477A
:10043000B442F8D32846FFF7B5FF70BD2DE9F0416F
:100440000646002410687529314616A510D0FFF71E
:10045000BAFF002802DA404213A507E031688A0794
:1004600001D512A502E0490704D511A5012401E038
:10047000FFF7B2FF00210A2206F1240709E0B0FBD2
:10048000F2FCB0FBF2F302FB1C003030785418464B
:10049000491C0028F3D123462A463046BDE8F041E6
:1004A00000F065BA000000002D0000002B000000E5
:1004B0002000000011680268006A530501D5087029
:1004C0000AE0D30501D5088006E0130603D5C2175C
:1004D000C1E9000200E008600120704701694A1C80
:1004E00002610878704700B58FB0CDE90131002175
:1004F000059105497944CDE903101146684600F09D
:1005000029F90FB000BD0000E5FFFFFF0A6802F8FF
:10051000010B0A60704700002DE9FF5F15468A460F
:100520000446DFF8AC80F8440027D8E900103E46C6
:10053000CDE9001010E03AF816106A4602A800F063
:10054000A8FC411C07D02178890603D5E269391837
:1005500091420DD80744761C2078800602D5E069C8
:10056000B84205DDAE42E6DB3AF816000028E2D1DB
:10057000A069C01BA0612046FFF7FEFED8E900106D
:10058000CDE90010002017E03AF818106A4602A8DA
:1005900000F07FFCB0F1FF3F81460BD000250DF14C
:1005A000080B05E0D4E901211BF8050090476D1CFC
:1005B0004D45F7D308F10100B0428046E4DB206AE4
:1005C000384420622046FFF7EDFEBDE8FF9F0000A3
:1005D000AE1101002DE9F0418046D21D22F0070244
:1005E0000025D2E90002F52915A614D0011E72F1EA
:1005F000000106DA0023D0EB030063EB020211A630
:1006000008E0D8F800108B0701D50FA602E04907D3
:1006100001D50EA601251146002408F1240704E0A7
:1006200000F060F930323A55641C50EA0102F7D10B
:100630002B46324621464046BDE8F04100F097B9CE
:10064000000000002D0000002B0000002000000032
:1006500030B4002100F1240408E002F00705D208BC
:10066000303542EA4372DB086554491C52EA0305FF
:10067000F3D10468002310A2250708D504F0200454
:100680000C4304D0C46901230CA2641EC46130BCB5
:1006900000F06DB910B5044621461068FFF79CFEC6
:1006A00002462046BDE810400023D1E7D21D22F0CB
:1006B0000701D1E90023CBE7000000003000000073
:1006C000F0B40D460188090502D5214C7C4402E0B6
:1006D0001F4C7C440E34002100F1240608E002F097
:1006E0000F071209E75D42EA03721B097754491CA0
:1006F00052EA0307F3D102780023120704D5702DC4
:1007000006D009B1022311342246F0BC00F02FB903
:1007100001231034F8E770B504460D4621461068F1
:10072000FFF75AFE024629462046BDE870400023E6
:10073000C6E7D21D22F00703D3E90023C0E7036810
:10074000126843F0200303600823C3610023B7E766
:10075000101001002DE9F05F894604464FF0000AB1
:10076000DFF874B1FB44C0F820A02046E168884758
:10077000002874D0252806D0D4E901219047206AAA
:10078000401C2062F1E700265F462046E16888476A
:100790002028054607DB312D05D2781910F8200CEA
:1007A00008B10643F1E7B00701D526F00406C4F806
:1007B0001CA00027C4F818A02A2D09D0284607F04D
:1007C00071FC38B304EB8708303DC8F8185019E0C5
:1007D00059F8041B204604EB87029161E1688847C1
:1007E000012F054618D1E069002820DA26F02006FE
:1007F0001DE0D8F8180000EB800005EB4000303811
:10080000C8F818002046E1688847054607F04AFC0A
:100810000028EED1012F0AD02E2D08D12046E16804
:1008200088477F1C0546022F46F02006C4DBA069DE
:10083000002803DA404246F00106A061F00701D02B
:1008400026F010066C2D0BD0682D09D04C2D39D018
:100850006A2D35D0742D35D07A2D33D016E038E09E
:10086000E1682F4620468847B842054609D16C2FDB
:1008700026D04FF48060E16806432046884705464D
:1008800004E06C2F1AD04FF4807006430DB3A5F12D
:100890004100192802D8203546F400664A46294608
:1008A000204626604E46FFF77DFC80B101280BD024
:1008B000F61D26F0070000F1080956E74020E4E79E
:1008C0008020D8E70020D6E706F104094DE7284646
:1008D00052E7206ABDE8F09FA00F01000048704772
:1008E0006800002030B5B0F10A024FEA900E71F1B5
:1008F00000034EEA817EB0EB0E0061EB91014FEAFE
:10090000101E4EEA017E10EB0E0041EB11114FEA72
:10091000102E4EEA016E10EB0E0041EB11214FEA52
:10092000104E4EEA014E10EB0E0041EB1141401803
:1009300041F100014FEAD00040EA41704FEAD10195
:1009400010EB80054FEA810444EA907444EB010403
:100950006D1944EB0404521BA3414FF0000348BF40
:100960000A3200D530BD401C41F1000130BD2DE9F7
:10097000F0470D4699469246044600F12408016866
:10098000880604D5E06921F01001216000E0012013
:10099000A84201DD471B00E00027A1697A1902EB9C
:1009A0000900081AA0612078C00602D42046FFF78B
:1009B000E3FC002608E0D4E901211AF8060090477C
:1009C000206A401C761C20624E45F4DB2078C0066D
:1009D0000AD52046FFF7D0FC06E0D4E901213020FB
:1009E0009047206A401C2062381EA7F10107F4DC02
:1009F00007E0D4E9012118F805009047206A401C5F
:100A00002062281EA5F10105F3DC2046FFF7CAFC91
:100A10002078000602D50220BDE8F0870120FBE720
:100A200070472DE9FF4F0C461E464FF0FF378BB045
:100A3000D2E90001DDF860800A908A46C1F30A55C8
:100A400005B93D46002108464FF00000BAF1000FFD
:100A500000F4400005DA00EB80004FF4400101EAA9
:100A600050004FEA9059B9F1010F00DDB9460A98DC
:100A700050EA4A000ED044F61050A5F2FF35454327
:100A80002F14B8F1000F1ED07542291E1EDDC9F1CA
:100A900000021CE0B8F1010F4FF0000001D030213E
:100AA00003E0F24305E02154401CB042FBDB30463A
:100AB0000022002121540B99C1F80880C1E90020CF
:100AC0000FB0BDE8F08FBD1B6D1CDEE74A4600DAB3
:100AD000694206A800F074FA06AB93E8070003AB7E
:100AE00083E8070050460A9900F0E5FA8DE8070010
:100AF000A0F500501F3800900398002D09DD42F248
:100B00001F014A46084403A90390684600F044FDCB
:100B100008E0A0F500504A461F3803A90390684634
:100B200000F04EFD8DE807000004000C03D04FF0EC
:100B3000FF30410800E01046B8F1000F03D000225A
:100B4000009215461EE0751E05D4FFF7CBFE30322D
:100B500062556D1EF9D5B3460122084302D000222A
:100B60007F1C04E02078302801D100227F1E002A5B
:100B7000099786D01DE0112D07DAFFF7B3FE30325A
:100B800062556D1C50EA0102F5D1084302D000986D
:100B9000C8B10EE00021681E05E0235C625C63546E
:100BA0002254401E491C8142F7DBAB46A81B401E65
:100BB0000990002004F80B000B98099AC0F80880EF
:100BC000C0E9002B7CE711264FF0000859E72DE91A
:100BD000F04F88460446D21D22F0070191B0D1E9BA
:100BE0000001CDE90A0107F049FA02460B98C00F4F
:100BF00001D02D2007E02068810701D52B2002E0DD
:100C0000202101EAC000032A099001D0072A05DB50
:100C100003464146204600F093F90BE12078800618
:100C200001D5E06900E00620B8F1650F814606D0E5
:100C3000B8F1660F18D0B8F1670F70D131E000201D
:100C4000B9F1110F009001DB112301E009F101035B
:100C50000AAA01A90CA8FFF7E4FEDDE90C70002642
:100C600009F10105834647E001204B4600904FF013
:100C700000470AAA01A90CA8FFF7D3FEDDE90DB0D1
:100C80000C995D46002610B909F101000D18B9EB69
:100C9000050003D4C0F1FF3609F10105A5EB0900F9
:100CA0002BE0B9F1010F01DA4FF001090020B9F191
:100CB000110F0090484601DD112300E003460AAA07
:100CC00001A90CA8FFF7ADFEDDE90C704D4600262A
:100CD0008346207800070AD4AB4500DA5D4601A8B8
:100CE000012D04DD411911F8011C302907D04F45B1
:100CF00002DA17F1040F04DA012082460FE06D1EBC
:100D0000EEE7002F02DCED1B3E4403E0781CA84216
:100D100000DD7D1CB81B00F1010A4FF00047207870
:100D2000000703D4AA4501DB4FF0FF3A0021B7F1D9
:100D3000004F0DF143088DF8431024D002202B23DF
:100D4000002F01DA7F422D230A21021EA0F10100AB
:100D500000DC5FB197FBF1FC97FBF1F201FB1C7C1F
:100D600017460CF1300C08F801CDEEE7A8F10100B0
:100D700003702188090501D5452100E06521A0F116
:100D8000010800F8011C09980FA9A1EB0807FF1D35
:100D900000B10120411901EBEA70A1693844081A39
:100DA000401EA0612078C00602D42046FFF7E4FA76
:100DB000099828B1D4E901219047206A401C20629B
:100DC0002078C00622D52046FFF7D6FA1EE0002E76
:100DD00004DBB34502DD01A8805D00E03020D4E9EA
:100DE00001219047206A401C2062761CAAF1010074
:100DF0005FEA000A0AD100F09FF8C0680168405C11
:100E0000D4E901219047206A401C2062281EA5F1E8
:100E10000105DCDC07E0D4E9012118F8010B90475B
:100E2000206A401C2062381EA7F10107F3DC20462F
:100E3000FFF7B8FA032011B043E610B5436913B1C8
:100E4000AFF3008001E0FFF7D0FA012010BD127867
:100E500000F124010A7000224A700122EDE71168B6
:100E60004FF0FF32E9E710B5436913B1AFF30080EB
:100E700001E0FFF751FB012010BD128800F12401B1
:100E800082840022C2840122EDE711684FF0FF3214
:100E9000E9E770B516460C46054600F045F80368CC
:100EA00093F80101012806D0FF2C0FD8185D68B116
:100EB00001202C7070BDD3F807013246214603F2A1
:100EC000071303442846BDE8704018474FF0FF3031
:100ED00070BD000000487047680000207546FFF7AD
:100EE000F9FFAE4605006946534620F007008546E7
:100EF00018B020B5FFF7CEF9BDE820404FF000064E
:100F00004FF000074FF000084FF0000B21F00701F1
:100F1000AC46ACE8C009ACE8C009ACE8C009ACE834
:100F2000C0098D467047000010B500F005F8001D9F
:100F300010BD00BFB1770000004870478800002056
:100F40002DE9F0411F46044603260168072A01F4F3
:100F5000006004DB08B116A505E016A503E008B1A2
:100F600015A500E015A521F010002060A069C01EA5
:100F7000A0610FB1401EA0612046FFF7FDF94FB1FF
:100F8000D4E9012138469047206A401C2062C01CE9
:100F9000206206E0206AFAE7D4E9012115F8010B86
:100FA0009047761EF8D22046FFF7FCF9BDE8F081A5
:100FB0004E414E006E616E00494E4600696E6600FD
:100FC0002DE9F047814616468AB0334878440DC86B
:100FD0008DE80D0030487844801C03AC0DC884E8CF
:100FE0000D0041F69B300844372190FBF1F290FB55
:100FF000F1F5A5F1800501FB12041B3C02D564420A
:10100000012000E00020DFF890A080460027FA448D
:10101000AAF1BE0A0DE0E00709D03246684607EBA8
:1010200047010AEB810100F0CBFA8DE8070064105C
:101030007F1C002CEFD1184F7F44AC3F18E0E8072D
:1010400014D007EB04100DF1180A90E80E008AE89E
:101050000E00C068F04201D198190890324606A9E6
:1010600003A800F0ADFA03AB83E807006D10641C21
:10107000002DE4D132466946B8F1000F03A802D032
:1010800000F08AFA01E000F09BFAC9E90001C9F812
:1010900008200AB0BDE8F087C80701000446AFF396
:1010A00000802046FFF7E1F801491820ABBEFEE7BB
:1010B0002600020070475FEA400C08BF91F0000F65
:1010C0004FEA8C234FEAC12243EA51514FEA1C50A8
:1010D00018BF00F5F0404FEA300018BF41F0004162
:1010E0005FEA6C5C00F02980BCF1FF3F08BF40F074
:1010F00080407047130C06BF12044FF0100C4FF0E5
:10110000000C130E04BF12020CF1080C130F04BFE5
:1011100012010CF1040C930F04BF92000CF1020CAD
:10112000D30F04BF52000CF1010C11464FF0000226
:10113000A0F11F00A0EB0C00704711F0004F08BF9A
:10114000704731F000413FF4D5AF0B0C06BF0904E6
:101150004FF0100C4FF0000C0B0E04BF09020CF105
:10116000080C0B0F04BF09010CF1040C8B0F04BF1A
:1011700089000CF1020CCB0F04BF49000CF1010CEB
:10118000CCF12003A0EB0C0022FA03F302FA0CF2DC
:1011900041EA030100F10100704720F07F4C80EA32
:1011A000030023F07F47ACEB070303F57C5300F00B
:1011B000004003F1FF032DE980494FEA154B09B4C4
:1011C0004FEA144325EA0B4E24EA03480FF20426A3
:1011D00006EB132749083E785FEA320203FB0667F5
:1011E000C7F5000707FB06F64FEA54374FEAD64625
:1011F00006F1020607FB066CCCF1005C4FEA1C47C7
:101200002CEA074C07FB06F40CFB06F504EB15462D
:101210004FEA961634BF00204FF000404FEAD13716
:1012200006FB07FC4FEA1C4C0CFB0BF7D21B03FB25
:101230000CF761EB07010CFB0EF7B0EB074072EB0C
:1012400017420CFB08F734BFA2EB0742B2EB074290
:1012500061EB17414FEA0C444FEA910706FB07FC8C
:101260004FEA1C4C0CFB0BF7B0EBC74072EB57324C
:1012700003FB0CF734BFA2EBC742B2EBC74261EBF2
:1012800057310CFB0EF7B0EBC70072EB57720CFB3B
:1012900008F734BFA2EBC702B2EBC70261EB57718C
:1012A000039F4FEA816141EA921104EBCC044FEABB
:1012B000D1374FEA826206FB07FC42EA90124FEAFE
:1012C00080604FEA1C4C0CFB0BF7D21B03FB0CF7A6
:1012D00061EB07010CFB0EF7B0EB074072EB174216
:1012E0000CFB08F734BFA2EB0742B2EB074261EBFD
:1012F00017414FEA8C554FEA910704EB9C2406FBFB
:1013000007FC4FEA1C4C0CFB0BF7B0EBC74072EB31
:10131000573203FB0CF734BFA2EBC742B2EBC74214
:1013200061EB57310CFB0EF7B0EBC70072EB577255
:101330000CFB08F734BFA2EBC702B2EBC70261EBAC
:10134000577115EB4C254FEA816141EA92114FEA42
:1013500082624FEAD13742EA901206FB07FC44F161
:1013600000044FEA80604FEA1C4C0CFB0BF7D21BC9
:1013700003FB0CF761EB07010CFB0EF7B0EB07402A
:1013800072EB17420CFB08F734BFA2EB0742B2EB3B
:10139000074261EB174115EB1C154FEA813141EA19
:1013A00092414FEA823242EA90424FEA80304FEA5D
:1013B0000C7644F1000448EA03434EEA0B484FF030
:1013C000000EB2EB080C71EB030724BF62463946EE
:1013D0004EEB0E0E4FF0000B0018524149414BEB03
:1013E0000B0BB2EB080C71EB03077BF1000B24BF76
:1013F000624639464EEB0E0E4FF0000B001852417C
:1014000049414BEB0B0BB2EB080C71EB03077BF183
:10141000000B24BF624639464EEB0E0E51EA02071E
:1014200018BF46F0010616EB0E7655F1000254F196
:10143000000103D5BDE88901BDE80088BDE8890148
:10144000BDE80048B619524141EB0101A3F1010387
:10145000704780807F7E7D7C7B7A79787776767521
:101460007473727171706F6E6E6D6C6C6B6A6A6999
:101470006868676666656464636362616160605F33
:101480005F5E5E5D5D5C5C5B5B5A5A5959585857AC
:101490005756565555555454535352525251515014
:1014A00050504F4F4F4E4E4D4D4D4C4C4C4B4B4B67
:1014B0004A4A4A49494948484847474747464646AD
:1014C00045454544444444434343434242424241E8
:1014D0004141002B26D4770021D01CB54FEA3707B5
:1014E00003B44FF010004FF010014FF000000FBC9C
:1014F000BDE810400BF1010BBBF1010F08BF5FEA23
:10150000170722BF12F1010211F101014FF0004152
:1015100043F1000300F0004043EA00007047F9D3B4
:101520005708DAE746EA064613F1400F4FEA164637
:101530001FDD13F1200FDFBF16430A4600212033C1
:101540005B42C8D0C3F1200746EA064602FA07F715
:101550004FEA164646EA0706C3F1200722FA03F2CD
:1015600001FA07F721FA03F14FF0000342EA0702FC
:10157000B1E746EA020646EA06464FEA164646EA5A
:101580000106BCBF46EA0646360C4FF000034FF09A
:1015900000024FF000019EE72DE9C048934630B4A9
:1015A00091E8380007C831EA400C48BF34EA430CE0
:1015B00003D5FFF7F2FDFFF78CFFF0BCBDE8008814
:1015C0002DE9C048934630B491E8380007C810F0C0
:1015D000804F08BF13F0804F03D100F005F8FFF7EC
:1015E00078FFF0BCBDE8008820F07F4780EA030068
:1015F00023F07F4C07EB0C03A3F57C5300F0004075
:10160000A3F1FE0392F0000F00F0B38095F0000FFD
:1016100000F077802DE901494FEA11404FEA144666
:1016200021EA004800FB06FC24EA064708FB06F610
:1016300007FB08F800FB07F718EB06484CEB164CC5
:101640004FEA124B18EB07484FEA15464CEB174090
:1016500022EA0B4E0BFB06FC25EA06470EFB06F6BC
:1016600007FB0EFE0BFB07F71EEB064E4CEB164C72
:101670004FF000061EEB074E4CEB174B18EB0B0818
:1016800040F1000018EB0E0B58EB000840F1000091
:101690008F1A4FF000013CBFC943661B14BFB5EB66
:1016A000040C00213CBFC943F61B4FEA17444EEA25
:1016B0008E0E27EA04454FEA1C4704FB07622CEA1A
:1016C000074C05FB07F70CFB05F604FB0CFC16EBBF
:1016D000074642EB174216EB0C4642EB1C421BEB53
:1016E000060658EB0202414146EA9E0601D5BDE8D6
:1016F0000189B619524141EB0101A3F10103BDE893
:1017000001894FEA14454FEA114724EA054621EAC8
:10171000074C05FB07F406FB07F70CFB06F105FB7E
:101720000CFC11EB074144EB17444FEA124711EB55
:101730000C4144EB1C4422EA074C05FB07F206FB74
:1017400007F70CFB06F605FB0CFC16EB074642EB15
:10175000174216EB0C4642EB1C456A1854F1000187
:1017600048BF7047B619524141EB0101A3F1010393
:10177000704795F0000F37D04FEA11424FEA1447F7
:1017800021EA024624EA074C02FB07F106FB07F7B1
:101790000CFB06F402FB0CFC14EB074441EB174175
:1017A0004FEA154714EB0C4441EB1C4125EA074C6A
:1017B00002FB07F506FB07F70CFB06F602FB0CFC29
:1017C00016EB074645EB174516EB0C4645EB1C425E
:1017D000121951F1000148BF7047B619524141EB4F
:1017E0000101A3F1010370474FEA14454FEA114785
:1017F00024EA054621EA074C05FB07F106FB07F73B
:101800000CFB06F24FF0000605FB0CFC12EB074246
:1018100041EB174112EB0C4251EB1C4148BF7047A2
:10182000921841EB0101A3F10103704721B18268D5
:1018300042F00102826003E0826822F001028260CD
:101840007047000010B504461248844208D10121B7
:10185000401505F001FB0021601505F0FDFA17E0C9
:101860000D48844208D10121001505F0F5FA002148
:10187000201505F0F1FA0BE00848844208D1012157
:10188000C80305F0E9FA00214FF4004005F0E4FA3E
:1018900010BD00000024014000280140003C014030
:1018A000014600208A6802F004020AB1012000E02B
:1018B000002070470146C86C80B270470246002085
:1018C00013680B400BB1012000E000207047014677
:1018D00000208A6802F008020AB1012000E000201E
:1018E0007047000030B502460020002350680F4CBE
:1018F00020400D790C6844EA05242043506090682C
:101900000B4C2040D1E902542C434D7944EA450464
:1019100020439060D06A20F470000C7C641EE4B216
:10192000234340EA0350D06230BD0000FFFEF0FFC9
:10193000FDF7F1FFF0B504460D4600200021092D0A
:1019400011DDE068A5F10A0606EB4607072606FA50
:1019500007F18843A5F10A0606EB460603FA06F1ED
:101960000843E0600CE0206905EB4507072606FA0E
:1019700007F1884305EB450603FA06F108432061A9
:10198000072A0FDA606B561E06EB86071F2606FA3B
:1019900007F18843561E06EB860605FA06F1084352
:1019A000606322E00D2A0FDA206BD61F06EB860754
:1019B0001F2606FA07F18843D61F06EB860605FAAE
:1019C00006F10843206310E0E06AA2F10D0606EB81
:1019D00086071F2606FA07F18843A2F10D0606EBDB
:1019E000860605FA06F10843E062F0BD816841F021
:1019F00008018160704721B1826842F4A0028260D0
:101A000003E0826822F4A00282607047816841F09E
:101A100004018160704700002DE9F84F0E2000F0AE
:101A2000B7FD009007F0F6F880464FF066320E4B97
:101A300007F040F9064600220C4B06F04FFF044623
:101A400006F066FE82460A49504607F0FBFD054651
:101A5000084907F0C3FE044607F0A8FD1FFA80FB03
:101A60005846BDE8F88F000066660A400000B040A6
:101A700000401C4500204B4510B500F0C9FD10BDCD
:101A80002DE9F04107460C460026002509E0360204
:101A90003919491B491E88B200F008F80644681C31
:101AA000C5B2A542F3DB3046BDE8F08170B504460F
:101AB000002600F067FE2546E11704EB11610912CC
:101AC000A02202EB4101C8B200F028FE00F0A6FE01
:101AD000E11704EB11610912A4EB0121C8B200F077
:101AE0001DFE00F09BFE00F04DFEA12000F016FE52
:101AF00000F094FE002000F0D9FD064600F068FEDC
:101B0000304670BD2DE9F04105460E4617460024CB
:101B100009E0E20026FA02F2D1B22A1990B200F0EE
:101B200006F8601CC4B2BC42F3DBBDE8F08170B5BE
:101B300004460E4600F026FE2546E11704EB11612F
:101B40000912A02202EB4101C8B200F0E7FD00F04B
:101B500065FEE11704EB11610912A4EB0121C8B283
:101B600000F0DCFD00F05AFE304600F0D7FD00F03A
:101B700055FE00F02DFE0A2006F0BEFA70BD0000F2
:101B800000B587B001214FF4047005F055F94FF40A
:101B9000004005F035F91020ADF8040000208DF864
:101BA000070001A9174800F06EFA1748FFF74AFE30
:101BB000002002908DF80C008DF80D004FF460208D
:101BC00004900020059001208DF8180002A90E480D
:101BD000FFF788FE01210C48FFF728FE0A48FFF7AF
:101BE00005FF00BF0848FFF772FE0028FAD106483B
:101BF000FFF70CFF00BF0448FFF752FE0028FAD1A0
:101C000007B000BD001001400024014000BFFEE706
:101C100010B50A2006F096FA10BD000010B500209D
:101C20000E4908600E48006820F0F0000C4908607A
:101C30000846006840F03000086000200949C1F8FB
:101C4000A401FFF7E5FF012004490860FFF7E0FF6A
:101C500000200549C1F8840110BD000084812142A3
:101C6000041C0140008023420080214208B501216C
:101C7000882005F0E1F80220ADF8000010208DF872
:101C8000030003208DF8020069460A4800F0FBF9C2
:101C90000221084800F084FA4FF40070ADF800000B
:101CA0006946054800F0EFF94FF40071024800F072
:101CB00077FA08BD000C0140001C014010B500205F
:101CC0000E4908600E48006820F0F0000C490860DA
:101CD0000846006840F03000086001200949C1F85A
:101CE000A401FFF795FF012004490860FFF790FF6A
:101CF00000200549C1F8840110BD00008481214203
:101D0000041C0140008023420080214270B505463A
:101D100000241548006820F0F000134908600846C8
:101D2000006840F080000860002612E000200F49A3
:101D300008601E2006F006FA01200D49C1F8840152
:101D40006006040E0B48006808B1601CC4B2701C29
:101D5000C6B2082EEADB15B9FFF7B0FF01E0FFF7C6
:101D60005DFF204670BD0000041C014084812142BB
:101D7000008021422481234270B504461248006845
:101D800020F0F000104908600846006840F030007C
:101D9000086000200D490860002511E0E0090C49A9
:101DA00008606006040E01200A49C1F88401FFF7AB
:101DB0002FFF002005490860FFF72AFF681CC5B205
:101DC000082DEBDB70BD0000041C01408481214222
:101DD000A48123420080214210B50E48006820F003
:101DE000F0000C4908600846006840F030000860C8
:101DF0000120094908600949C1F88401FFF708FF7B
:101E0000002005490860FFF703FF00200349C1F8DF
:101E1000840110BD041C0140A481234200802142A2
:101E200010B50E48006820F0F0000C490860084624
:101E3000006840F030000860012009490860FFF7A1
:101E4000E7FE00200749C1F8A401FFF7E1FE0120E9
:101E500005490860FFF7DCFE10BD0000041C0140CE
:101E60008481214200802342A481234210B50024B2
:101E70001348006820F0F000114908600846006827
:101E800040F08000086001200E49086006F05AF911
:101E900001200D49C1F8840106F054F907E0601CE7
:101EA000C4B2FA2C03DDFFF7BBFF012010BD0548CB
:101EB000803800680028F2D10449086000BFF5E7C7
:101EC000041C0140A48123420080214284812142DC
:101ED00070472DE9F04306460F46904600244546DC
:101EE0000320A0EB48093CE07A1B91B2321990B272
:101EF00000F028FE3A1B91B2721990B200F022FE57
:101F00003A1991B2721990B200F01CFE7A1991B28E
:101F1000321990B200F016FE7A1991B2321B90B2CB
:101F200000F010FE3A1991B2721B90B200F00AFE56
:101F30007A1B91B2321B90B200F004FE3A1B91B2B0
:101F4000721B90B200F0FEFD641CB9F1000F03DAC1
:101F5000A000801D814404E0601B80000A308144A1
:101F60006D1EAC42C0DDBDE8F083000051B18200BF
:101F7000A2F1C042126842F001038200A2F1C04205
:101F8000136009E08200A2F1C0421268034B1A40BC
:101F90008300A3F1C0431A6070470000FEFF0F00EA
:101FA000D0E901121143C268114302691143426929
:101FB000114382691143C2691143026A1143426AA3
:101FC0001143826A1143C26A1143026B11430268D2
:101FD0009200A2F1C0421160816808290BD101680A
:101FE0008900A1F1C041096841F0400201688900FF
:101FF000A1F1C0410A60416B0968426B526841EA35
:102000000211426B926841EA0221426B928941EAD5
:102010000241426B128A41EA0251426B127D41EA4F
:102020000261426B926911430268521C9200A2F154
:10203000C0421160C16AB1F5804F1BD1816B096844
:10204000826B526841EA0211826B926841EA022176
:10205000826B128A41EA0251826B127D41EA02616F
:10206000826B9269114302689200A2F1C042C2F8E9
:10207000041107E06FF0704201688900A1F1C041CE
:10208000C1F8042170472DE9F041024600250026E1
:10209000002000230024002791F803C00CF00F0556
:1020A00091F803C00CF0100CBCF1000F03D091F8B4
:1020B00002C04CEA050591F800C0BCF1000F31D018
:1020C000146800202BE04FF0010C0CFA00F3B1F87B
:1020D00000C00CEA03069E4220D183004FF00F0C93
:1020E0000CFA03F7BC4305FA03FC4CEA040491F82C
:1020F00003C0BCF1280F06D14FF0010C0CFA00FC14
:10210000C2F814C00AE091F803C0BCF1480F05D131
:102110004FF0010C0CFA00FCC2F810C0401C08285B
:10212000D1D31460B1F800C0BCF1FF0F34DD5468A6
:1021300000202EE000F1080C4FF0010808FA0CF323
:10214000B1F800C00CEA03069E4221D183004FF093
:102150000F0C0CFA03F7BC4305FA03FC4CEA040429
:1021600091F803C0BCF1280F05D100F1080C08FA62
:102170000CF8C2F8148091F803C0BCF1480F07D1E5
:1021800000F1080C4FF0010808FA0CF8C2F81080B2
:10219000401C0828CED35460BDE8F08141617047EF
:1021A000016170470EB50121882004F045FE04202E
:1021B000ADF8000010208DF8030003208DF8020018
:1021C00069463348FFF75FFF04213148FFF7E8FF16
:1021D0004FF48060ADF8000069462E48FFF753FFCA
:1021E0004FF480612B48FFF7DBFFFFF73FFD002036
:1021F000294908600A2005F07FFF01202749C1F81E
:1022000088010A2005F078FF28208DF80300694630
:102210002048FFF738FF4FF480611E48FFF7BEFFEC
:10222000642005F069FF042201A948F2401000F083
:102230003BF800208DF8080019A101A8FEF74EF820
:1022400018BB02208DF80400012201A948F24000C9
:1022500000F056F9012201A948F2470000F024F8E5
:102260009DF80400602802DA012000F01BF90A2022
:1022700005F042FF00208DF80400012201A948F278
:10228000400000F03DF900200EBD0120FCE70000F9
:10229000000C0140001C0140888121420080214245
:1022A00039313437000000002DE9F04105460F4672
:1022B0001646FFF791FD2820FFF75EFDFFF7D6FDDC
:1022C0002812FFF759FDFFF7D1FDE8B2FFF754FDE3
:1022D000FFF7CCFDFFF780FD2920FFF74DFDFFF74D
:1022E000C5FD00240BE0711EA14201D0012100E0D8
:1022F00000210846FFF70AFD3855601CC4B2B442FD
:10230000F1DBFFF78DFDBDE8F081000031B582B053
:102310000024002560480078401C5F49087008468A
:1023200000780A2190FBF1F201FB120018B15A4823
:1023300000780A287DDA012202A948F24E10FFF740
:10234000B3FF9DF8080000F00F00002869D09DF849
:10235000080000F00F00062863DA9DF8080000F07E
:102360000F01FF208840C0B200909DF80000C043DC
:10237000C0B240F0C00049490874002443E0474817
:10238000007C0121A140084020B3454931F81400E8
:10239000042201A9FFF788FF404890F8200000F0D0
:1023A0000100C0B19DF804009DF8051000EB01206C
:1023B00081B23A480E3020F814109DF806009DF8BE
:1023C000071000EB0120C0F5487081B233480C3093
:1023D00020F8141015E09DF804009DF8051000EB9E
:1023E000012081B22D480C3020F814109DF8060011
:1023F0009DF8071000EB012081B228480E3020F82C
:102400001410601CC4B2052CB9DB01252348808957
:1024100020B92248C08908B90020029000201E4936
:1024200008709DF8080000F0800010B19DF80800C9
:1024300000E00BE000F00F00062807DA0020009013
:102440000122694648F24E1000F05AF89DF8080043
:1024500000F08F00802815D11048007C00F080002B
:1024600030B10E48007C20F080000C49087409E06F
:102470004FF6FF7009498881C8810846007C00F04A
:10248000E000087404480078F02802DD0A200249C0
:10249000087028463EBD00001C00002020000020DF
:1024A000C216010838B50546002400208DF800004A
:1024B0008DF8015000BF09E09DF800000F49095D4B
:1024C0000844C0B28DF80000601CC4B2B82CF3D32D
:1024D0009DF80000C043401CC0B28DF80000B82237
:1024E000064948F2470000F00BF80222694648F21C
:1024F000FF0000F005F8002038BD00000A160108B2
:102500002DE9F04104460E4617464FF00008FFF74C
:1025100063FC2820FFF730FCFFF7A8FC2012FFF730
:102520002BFCFFF7A3FCE0B2FFF726FCFFF79EFCB5
:1025300000250BE0705DFFF71FFCFFF797FC80465E
:10254000B8F1000F00D003E0681CC5B2BD42F1DB5A
:1025500000BFFFF765FC4046BDE8F08110B50446BA
:102560000723012221460948FFF7E4F90121074822
:10257000FFF741FA00BF02210448FFF79FF9002846
:10258000F9D00248FFF796F910BD00000024014081
:1025900070B506460024002508E03046FFF7DEFF50
:1025A0000444052005F0A8FD681CC5B20A2DF4DB23
:1025B0000A20B4FBF0F080B270BD00BFFEE700005F
:1025C00010B500200F4908600F48006820F47040E3
:1025D0000D4908600846006840F44050086000203B
:1025E0000A49C1F8AC01022005F0ACFD0120054903
:1025F0000860022005F0A6FD00200449C1F8A801EA
:1026000010BD0000A8812142040C0140008021423D
:1026100008B50121082004F00FFC4FF44060ADF82C
:10262000000010208DF8030003208DF80200694699
:102630000748FFF728FD4FF440610548FFF7B0FD5C
:102640000120044908600449C1F8AC0108BD00003C
:10265000000C0140A88121420080214210B50020D9
:102660000F4908600F48006820F470400D49086069
:102670000846006840F44050086001200A49C1F84B
:10268000AC01022005F05EFD012005490860022032
:1026900005F058FD00200449C1F8A80110BD000054
:1026A000A8812142040C01400080214270B50546FA
:1026B00000241748006820F4704015490860084657
:1026C000006840F400400860002616E00020114930
:1026D0000860022005F036FD01200F49C1F8A8016D
:1026E0006006040E0B487C38006808B1601CC4B258
:1026F000012005F027FD701CC6B2082EE6DB15B9D7
:10270000FFF7ACFF01E0FFF75BFF204670BD000064
:10271000040C0140A88121420080214270B504468A
:102720001548006820F470401349086008460068A6
:1027300040F440500860002010490860002517E070
:10274000E0090E49091D08606006040E022005F02C
:10275000F9FC01200A49C1F8A801022005F0F2FCA9
:10276000002006490860022005F0ECFC681CC5B298
:10277000082DE5DB70BD0000040C0140A88121425A
:102780000080214210B50F48006820F470400D49C8
:1027900008600846006840F44050086001200A497B
:1027A00008600A49C1F8A801042005F0CBFC00200C
:1027B00005490860042005F0C5FC00200349C1F864
:1027C000A80110BD040C0140AC81214200802142CF
:1027D00010B50F48006820F470400D4908600846A5
:1027E000006840F44050086000200A4908600A4927
:1027F000C1F8AC01042005F0A5FC012005490860E2
:102800000549C1F8AC01042005F09CFC10BD000096
:10281000040C0140A88121420080214210B500240F
:102820001448006820F470401249086008460068A7
:1028300040F40040086001200F49086005F082FC68
:1028400001200E49C1F8A80105F07CFC07E0601CDE
:10285000C4B2FA2C03DDFFF7BBFF012010BD064810
:10286000803800680028F2D10349091F086000BFC2
:10287000F4E70000040C0140AC81214200802142B9
:1028800070B504460026174805884088454315481A
:10289000808846F60401884216D1124880790128C2
:1028A00012D100200F4988712A2048812B2088816D
:1028B0000021084603F058FE01200A4988712B20A8
:1028C00048812A20888103E00021084603F04CFE5D
:1028D00004F0A0F8002602E003480480761CAE4213
:1028E000FAD370BD580000200008006C10B50446F3
:1028F000002C60D166498871F02008804FF4A070E8
:1029000048800846808849F2413188420BD06048AF
:10291000808846F60401884205D05D48808845F2EB
:10292000103188421AD12C20594908812A20488127
:102930002B2088810846808846F60401884205D00D
:102940005348808845F21031884206D14FF4A07078
:102950004F4908804FF4F070488095E04C488088DB
:1029600048F68911884207D12220494908814E2022
:1029700048814F20888187E04548808845F2105182
:10298000884210D14FF43050414908814FF428500B
:1029900048814FF42C5088814FF4F07008804FF438
:1029A0004870488070E02220394908812020488101
:1029B0002120888168E00120354988714FF4A0709A
:1029C0000880F02048800846808849F241318842DA
:1029D00005D02F48808845F21031884207D12C203D
:1029E0002B4908812A2048812B20888139E02848FA
:1029F000808846F60401884207D12C2024490881AA
:102A00002B2048812A2088812BE02148808848F6A5
:102A10008911884207D122201D4908814F20488111
:102A20004E2088811DE01A48808845F21051884266
:102A300010D14FF43050164908814FF42850488186
:102A40004FF42C5088814FF4487008804FF4F07098
:102A5000488006E022200E4908812120488120205C
:102A600088810B48808846F60401884205D00848D2
:102A7000808845F21031884206D14FF4F070044945
:102A800008804FF4A0704880002003F009FC10BDBE
:102A9000580000202DE9FF4F84B081468A4600206F
:102AA000039002900698A0EB09050798A0EB0A0690
:102AB000CDF80490CDF800A0002D01DD012705E040
:102AC0000DB9002702E04FF0FF376D42002E02DD06
:102AD0004FF0010806E016B94FF0000802E04FF091
:102AE000FF387642B54201DD2C4600E034464FF017
:102AF000000B21E0009A91B2019A90B200F022F806
:102B00000398284403900298304402900398A0420E
:102B100005DD0398001B039001983844019002984A
:102B2000A04205DD0298001B0290009840440090EE
:102B30000BF101001FFA80FB601C8345DADD08B051
:102B4000BDE8F08F30B504460D462946204603F017
:102B50000BFD03F05FFF024800880249088030BD8A
:102B6000180000200008006C00B59FB00121080289
:102B700004F052F9012140F2691004F05DF90120DE
:102B8000ADF8780010208DF87B0003208DF87A00D6
:102B90001EA9FE48FFF777FA4CF23370ADF87800C3
:102BA00018208DF87B0003208DF87A001EA9F848C4
:102BB000FFF769FA4FF68070ADF8780018208DF8AD
:102BC0007B0003208DF87A001EA9F248FFF75BFA1C
:102BD00041F20100ADF8780018208DF87B00032049
:102BE0008DF87A001EA9EC48FFF74DFA01200890F5
:102BF000002009900F200A9000200B900C900D905F
:102C00000E90019002900320039000200490059004
:102C10000690079006200F90002010901190102031
:102C200012900020139015901490169017904FF466
:102C300080501890002019904FF480401A90002086
:102C40001B9008A81C9001A81D900FA8FFF7A8F9D9
:102C500001210620FFF78AF9322005F04DFA012103
:102C6000002003F0E1FE322005F046FA002003F0D8
:102C70000BFBCA49888008468088FF280ADB084683
:102C800080884FF6FF71884204D0C4488088B0F530
:102C9000134F7CD1D32003F0B7FE03F0EFFA03F01B
:102CA000EDFA03F0EBFABD498880084680884FF6BC
:102CB000FF7101EA0020B949888003F0DFFAB749C3
:102CC00089880843B54988800846808849F241319F
:102CD00088426CD0BF2003F097FE03F0CFFA03F0D8
:102CE000CDFA03F0CBFA03F0C9FAAC498880084664
:102CF00080884FF6FF7101EA0020A849888003F020
:102D0000BDFAA64989880843A44988800846808876
:102D100046F6040188424AD0D42003F075FE03F041
:102D2000ADFA03F0ABFA03F0A9FA9C498880084693
:102D300080884FF6FF7101EA00209849888003F0EF
:102D40009DFA964989880843944988800846808876
:102D500045F2103188422AD04FF45A4003F054FE15
:102D600003F08CFA4FF45B4003F04EFE03F086FA5A
:102D70008A498880084680884FF6FF7101EA002062
:102D8000864988804FF45C4003F03EFE00E00EE090
:102D900003F074FA8149898808438049888008468D
:102DA0008088B0F5004F02D145F2105088807B48F2
:102DB000808849F2413188427ED1CF2003F024FE41
:102DC000002003F01BFEC12003F018FE302003F0AA
:102DD00015FEED2003F018FE642003F00FFE032023
:102DE00003F00CFE122003F009FE812003F006FE22
:102DF000E82003F009FE852003F000FE102003F018
:102E0000FDFD7A2003F0FAFDCB2003F0FDFD392013
:102E100003F0F4FD2C2003F0F1FD002003F0EEFDA3
:102E2000342003F0EBFD022003F0E8FDF72003F06F
:102E3000EBFD202003F0E2FDEA2003F0E5FD002099
:102E400003F0DCFD002003F0D9FDC02003F0DCFD21
:102E50001B2003F0D3FDC12003F0D6FD012003F0B9
:102E6000CDFDC52003F0D0FD302003F0C7FD30209C
:102E700003F0C4FDC72003F0C7FDB72003F0BEFD7B
:102E8000362003F0C1FD482003F0B8FD3A2003F0DE
:102E9000BBFD552003F0B2FDB12003F0B5FD0020CD
:102EA00003F0ACFD1A2003F0A9FDB62003F0ACFD41
:102EB0000A2003F0A3FD00E0A3E0A22003F09EFDA2
:102EC000F22003F0A1FD002003F098FD262003F07E
:102ED0009BFD012003F092FDE02003F095FD0F2003
:102EE00003F08CFD2A2003F089FD282003F086FDE5
:102EF000082003F083FD0E2003F080FD082003F07E
:102F00007DFD542003F07AFDA92003F077FD4320D6
:102F100003F074FD0A2003F071FD0F2003F06EFD35
:102F2000002003F06BFD002003F068FD002003F09B
:102F300065FD002003F062FDE12003F065FD002047
:102F400003F05CFD152003F059FD172003F056FD3A
:102F5000072003F053FD112003F050FD062003F07D
:102F60004DFD2B2003F04AFD562003F047FD3C2089
:102F700003F044FD052003F041FD102003F03EFD69
:102F80000F2003F03BFD3F200AE00000000C014051
:102F900000140140001801400020014058000020AA
:102FA00003F02CFD3F2003F029FD0F2003F026FD48
:102FB0002B2003F029FD002003F020FD002003F06A
:102FC0001DFD012003F01AFD3F2003F017FD2A200C
:102FD00003F01AFD002003F011FD002003F00EFDA8
:102FE000002003F00BFDEF2003F008FD112003F09B
:102FF0000BFD782005F080F8292003F005FD03F093
:1030000020B9FE48808846F6040188427ED111200E
:1030100003F0FAFC142005F06FF8D02003F0F4FC64
:10302000072003F0EBFC422003F0E8FC1D2003F036
:10303000E5FCD12003F0E8FC002003F0DFFC1A20BF
:1030400003F0DCFC092003F0D9FCD22003F0DCFC07
:10305000012003F0D3FC222003F0D0FCC02003F0B9
:10306000D3FC102003F0CAFC3B2003F0C7FC002077
:1030700003F0C4FC022003F0C1FC112003F0BEFCED
:10308000C52003F0C1FC032003F0B8FCC82003F006
:10309000BBFC002003F0B2FC252003F0AFFC212094
:1030A00003F0ACFC052003F0A9FC002003F0A6FC13
:1030B0000A2003F0A3FC652003F0A0FC252003F008
:1030C0009DFC772003F09AFC502003F097FC0F2022
:1030D00003F094FC002003F091FCF82003F094FC32
:1030E000012003F08BFCFE2003F08EFC002003F097
:1030F00085FC022003F082FC202003F085FC3620B2
:1031000003F082FC082003F079FC00E02AE03A207A
:1031100003F07AFC552003F071FC2B2003F074FCC3
:10312000002003F06BFC002003F068FC012003F09A
:1031300065FC3F2003F062FC2A2003F065FC0020C0
:1031400003F05CFC002003F059FC012003F056FC66
:10315000DF2003F053FC782004F0CEFF292003F099
:1031600053FC4CE7A548808845F21031884240F076
:103170007C87ED2003F048FC012003F03FFCFE209B
:1031800003F03CFCEE2003F03FFCDE2003F036FCB5
:10319000212003F033FCF12003F036FC012003F082
:1031A0002DFCDF2003F030FC102003F027FCC420AE
:1031B00003F02AFC8F2003F021FCC62003F024FC3E
:1031C000002003F01BFCE22003F018FCE22003F0D7
:1031D00015FCE22003F012FCBF2003F015FCAA202E
:1031E00003F00CFCB02003F00FFC0D2003F006FCF4
:1031F000002003F003FC0D2003F000FC002003F08E
:10320000FDFB112003F0FAFB002003F0F7FB19206F
:1032100003F0F4FB002003F0F1FB212003F0EEFBB0
:10322000002003F0EBFB2D2003F0E8FB002003F06F
:10323000E5FB3D2003F0E2FB002003F0DFFB5D2017
:1032400003F0DCFB002003F0D9FB5D2003F0D6FB8C
:10325000002003F0D3FBB12003F0D6FB802003F065
:10326000CDFB002003F0CAFB8B2003F0C7FB00203E
:1032700003F0C4FB962003F0C1FB002003F0BEFB6B
:10328000B22003F0C1FB002003F0B8FB002003F0E4
:10329000B5FB022003F0B2FB002003F0AFFB0320DC
:1032A00003F0ACFB002003F0A9FBB32003F0ACFB60
:1032B000002003F0A3FB002003F0A0FB002003F09C
:1032C0009DFB002003F09AFB002003F097FB0020F9
:1032D00003F094FB002003F091FB002003F08EFB31
:1032E000002003F08BFB002003F088FB002003F09C
:1032F00085FB002003F082FB002003F07FFB002011
:1033000003F07CFB002003F079FB002003F076FB48
:10331000002003F073FB002003F070FB002003F09B
:103320006DFB002003F06AFB002003F067FB002028
:1033300003F064FB002003F061FB002003F05EFB60
:10334000B42003F061FB8B2003F058FB002003F056
:1033500055FB962003F052FB002003F04FFBA12009
:1033600003F04CFB002003F049FBB52003F04CFBBD
:10337000022003F043FB002003F040FB032003F096
:103380003DFB002003F03AFB042003F037FB002054
:1033900003F034FBB62003F037FB002003F02EFBD4
:1033A000002003F02BFBB72003F02EFB002003F0DE
:1033B00025FB002003F022FB3F2003F01FFB002031
:1033C00003F01CFB5E2003F019FB002003F016FB4A
:1033D000642003F013FB002003F010FB8C2003F0AB
:1033E0000DFB002003F00AFBAC2003F007FB0020DC
:1033F00003F004FBDC2003F001FB01E05800002097
:10340000002003F0FBFA702003F0F8FA002003F02C
:10341000F5FA902003F0F2FA002003F0EFFAEB2027
:1034200003F0ECFA002003F0E9FADC2003F0E6FAFE
:10343000002003F0E3FAB82003F0E6FA002003F0DE
:10344000DDFA002003F0DAFA002003F0D7FA0020BA
:1034500003F0D4FA002003F0D1FA002003F0CEFAF2
:10346000002003F0CBFA002003F0C8FABA2003F0E2
:10347000CBFA242003F0C2FA002003F0BFFA0020A8
:1034800003F0BCFA002003F0B9FAC12003F0BCFA43
:10349000202003F0B3FA002003F0B0FA542003F028
:1034A000ADFA002003F0AAFAFF2003F0A7FA0020EB
:1034B00003F0A4FAC22003F0A7FA0A2003F09EFA50
:1034C000002003F09BFA042003F098FA002003F098
:1034D00095FAC32003F098FA3C2003F08FFA0020FD
:1034E00003F08CFA3A2003F089FA002003F086FA00
:1034F000392003F083FA002003F080FA372003F02C
:103500007DFA002003F07AFA3C2003F077FA0020DD
:1035100003F074FA362003F071FA002003F06EFA1B
:10352000322003F06BFA002003F068FA2F2003F03A
:1035300065FA002003F062FA2C2003F05FFA002005
:1035400003F05CFA292003F059FA002003F056FA40
:10355000262003F053FA002003F050FA242003F051
:103560004DFA002003F04AFA242003F047FA002025
:1035700003F044FA232003F041FA002003F03EFA5E
:103580003C2003F03BFA002003F038FA362003F029
:1035900035FA002003F032FA322003F02FFA00202F
:1035A00003F02CFA2F2003F029FA002003F026FA6A
:1035B0002C2003F023FA002003F020FA292003F046
:1035C0001DFA002003F01AFA262003F017FA002053
:1035D00003F014FA242003F011FA002003F00EFA8D
:1035E000242003F00BFA002003F008FA232003F054
:1035F00005FA002003F002FAC42003F005FA622065
:1036000003F0FCF9002003F0F9F9052003F0F6F9C6
:10361000002003F0F3F9842003F0F0F9002003F018
:10362000EDF9F02003F0EAF9002003F0E7F91820A3
:1036300003F0E4F9002003F0E1F9A42003F0DEF93F
:10364000002003F0DBF9182003F0D8F9002003F084
:10365000D5F9502003F0D2F9002003F0CFF90C2067
:1036600003F0CCF9002003F0C9F9172003F0C6F9E4
:10367000002003F0C3F9952003F0C0F9002003F007
:10368000BDF9F32003F0BAF9002003F0B7F9E62002
:1036900003F0B4F9002003F0B1F9C52003F0B4F948
:1036A000322003F0ABF9002003F0A8F9442003F026
:1036B000A5F9002003F0A2F9652003F09FF900208E
:1036C00003F09CF9762003F099F9002003F096F9B5
:1036D000882003F093F9002003F090F9C62003F04E
:1036E00093F9202003F08AF9002003F087F91720CE
:1036F00003F084F9002003F081F9012003F07EF942
:10370000002003F07BF9C72003F07EF9002003F0CE
:1037100075F9002003F072F9002003F06FF9002022
:1037200003F06CF9C82003F06FF9002003F066F98C
:10373000002003F063F9002003F060F9002003F09B
:103740005DF9C92003F060F9002003F057F900206B
:1037500003F054F9002003F051F9002003F04EF972
:10376000002003F04BF9002003F048F9002003F09B
:1037700045F9002003F042F9002003F03FF9002052
:1037800003F03CF9002003F039F9002003F036F98A
:10379000002003F033F9002003F030F9002003F09B
:1037A0002DF9002003F02AF9E02003F02DF916206E
:1037B00003F024F9002003F021F91C2003F01EF986
:1037C000002003F01BF9212003F018F9002003F07A
:1037D00015F9362003F012F9002003F00FF9462006
:1037E00003F00CF9002003F009F9522003F006F968
:1037F000002003F003F9642003F000F9002003F037
:10380000FDF87A2003F0FAF8002003F0F7F88B2097
:1038100003F0F4F8002003F0F1F8992003F0EEF83B
:10382000002003F0EBF8A82003F0E8F8002003F0F4
:10383000E5F8B92003F0E2F8002003F0DFF8C42037
:1038400003F0DCF8002003F0D9F8CA2003F0D6F822
:10385000002003F0D3F8D22003F0D0F8002003F0CA
:10386000CDF8D92003F0CAF8002003F0C7F8E02013
:1038700003F0C4F8002003F0C1F8F32003F0BEF811
:10388000002003F0BBF8E12003F0BEF8162003F09F
:10389000B5F8002003F0B2F81C2003F0AFF80020C8
:1038A00003F0ACF8222003F0A9F8002003F0A6F8FA
:1038B000362003F0A3F8002003F0A0F8452003F021
:1038C0009DF8002003F09AF8522003F097F80020AA
:1038D00003F094F8642003F091F8002003F08EF8D0
:1038E0007A2003F08BF8002003F088F88B2003F097
:1038F00085F8002003F082F8992003F07FF800207B
:1039000003F07CF8A82003F079F8002003F076F8A3
:10391000B92003F073F8002003F070F8C42003F01E
:103920006DF8002003F06AF8CA2003F067F8002061
:1039300003F064F8D22003F061F8002003F05EF891
:10394000D82003F05BF8002003F058F8E02003F0E3
:1039500055F8002003F052F8F32003F04FF8002050
:1039600003F04CF8E22003F04FF8052003F046F88E
:10397000002003F043F80B2003F040F8002003F090
:103980003DF81B2003F03AF8002003F037F834200C
:1039900003F034F8002003F031F8442003F02EF84F
:1039A000002003F02BF84F2003F028F8002003F04C
:1039B00025F8612003F022F8002003F01FF8792099
:1039C00003F01CF8002003F019F8882003F016F823
:1039D000002003F013F8972003F010F8002003F004
:1039E0000DF8A62003F00AF8002003F007F8B7202E
:1039F00003F004F8002003F001F8C22002F0FEFFFB
:103A0000002002F0FBFFC72002F0F8FF002002F0C8
:103A1000F5FFD12002F0F2FF002002F0EFFFD620E8
:103A200002F0ECFF002002F0E9FFDD2002F0E6FFEB
:103A3000002002F0E3FFF32002F0E0FF002002F09C
:103A4000DDFFE32002F0E0FF052002F0D7FF0020B9
:103A500002F0D4FF0A2002F0D1FF002002F0CEFFD6
:103A60001C2002F0CBFF002002F0C8FF332002F040
:103A7000C5FF002002F0C2FF442002F0BFFF00207B
:103A800002F0BCFF502002F0B9FF002002F0B6FFA8
:103A9000622002F0B3FF002002F0B0FF782002F0B5
:103AA000ADFF002002F0AAFF882002F0A7FF00204F
:103AB00002F0A4FF972002F0A1FF002002F09EFF79
:103AC000A62002F09BFF002002F098FFB72002F032
:103AD00095FF002002F092FFC22002F08FFF00202D
:103AE00002F08CFFC72002F089FF002002F086FF61
:103AF000D12002F083FF002002F080FFD52002F0E9
:103B00007DFF002002F07AFFDD2002F077FF002029
:103B100002F074FFF32002F071FF002002F06EFF4C
:103B2000E42002F071FF012002F068FF002002F0A3
:103B300065FF012002F062FF002002F05FFF02201B
:103B400002F05CFF002002F059FF2A2002F056FF2D
:103B5000002002F053FF3C2002F050FF002002F052
:103B60004DFF4B2002F04AFF002002F047FF5D208E
:103B700002F044FF002002F041FF742002F03EFFFB
:103B8000002002F03BFF842002F038FF002002F00A
:103B900035FF932002F032FF002002F02FFFA22019
:103BA00002F02CFF002002F029FFB32002F026FFD4
:103BB000002002F023FFBE2002F020FF002002F0D0
:103BC0001DFFC42002F01AFF002002F017FFCD20D5
:103BD00002F014FF002002F011FFD32002F00EFFCC
:103BE000002002F00BFFDD2002F008FF002002F0B1
:103BF00005FFF32002F002FF002002F0FFFEE520A7
:103C000002F002FF002002F0F9FE002002F0F6FEB2
:103C1000002002F0F3FE002002F0F0FE022002F08D
:103C2000EDFE002002F0EAFE292002F0E7FE00206F
:103C300002F0E4FE3C2002F0E1FE002002F0DEFE95
:103C40004B2002F0DBFE002002F0D8FE5D2002F0E7
:103C5000D5FE002002F0D2FE742002F0CFFE00203C
:103C600002F0CCFE842002F0C9FE002002F0C6FE65
:103C7000932002F0C3FE002002F0C0FEA22002F05A
:103C8000BDFE002002F0BAFEB32002F0B7FE002015
:103C900002F0B4FEBE2002F0B1FE002002F0AEFE43
:103CA000C42002F0ABFE002002F0A8FECD2002F0FE
:103CB000A5FE002002F0A2FED32002F09FFE00200D
:103CC00002F09CFEDC2002F099FE002002F096FE3D
:103CD000F32002F093FE002002F090FEE62002F0B6
:103CE00093FE112002F08AFE002002F087FE3420AD
:103CF00002F084FE002002F081FE562002F07EFEDB
:103D0000002002F07BFE762002F078FE002002F018
:103D100075FE772002F072FE002002F06FFE662032
:103D200002F06CFE002002F069FE882002F066FEC0
:103D3000002002F063FE992002F060FE002002F0F5
:103D40005DFEBB2002F05AFE002002F057FE9920D3
:103D500002F054FE002002F051FE662002F04EFEFA
:103D6000002002F04BFE552002F048FE002002F039
:103D700045FE552002F042FE002002F03FFE4520A5
:103D800002F03CFE002002F039FE432002F036FE35
:103D9000002002F033FE442002F030FE002002F04A
:103DA0002DFEE72002F030FE322002F027FE002038
:103DB00002F024FE552002F021FE002002F01EFE3B
:103DC000762002F01BFE002002F018FE662002F0B2
:103DD00015FE002002F012FE672002F00FFE002008
:103DE00002F00CFE672002F009FE002002F006FE41
:103DF000872002F003FE002002F000FE992002F06E
:103E0000FDFD002002F0FAFDBB2002F0F7FD0020CE
:103E100002F0F4FD992002F0F1FD002002F0EEFD29
:103E2000772002F0EBFD002002F0E8FD442002F0D4
:103E3000E5FD002002F0E2FD562002F0DFFD00204B
:103E400002F0DCFD232002F0D9FD002002F0D6FDB7
:103E5000332002F0D3FD002002F0D0FD452002F017
:103E6000CDFD002002F0CAFDE82002F0CDFD0020CB
:103E700002F0C4FD002002F0C1FD992002F0BEFD59
:103E8000002002F0BBFD872002F0B8FD002002F008
:103E9000B5FD882002F0B2FD002002F0AFFD7720D2
:103EA00002F0ACFD002002F0A9FD662002F0A6FDA4
:103EB000002002F0A3FD882002F0A0FD002002F007
:103EC0009DFDAA2002F09AFD002002F097FDBB2084
:103ED00002F094FD002002F091FD992002F08EFD89
:103EE000002002F08BFD662002F088FD002002F029
:103EF00085FD552002F082FD002002F07FFD552057
:103F000002F07CFD002002F079FD442002F076FDF5
:103F1000002002F073FD442002F070FD002002F04A
:103F20006DFD552002F06AFD002002F067FDE920DA
:103F300002F06AFDAA2002F061FD002002F05EFDA1
:103F4000002002F05BFD002002F058FD002002F08E
:103F50005BFDAA2002F052FDCF2002F055FD0020AB
:103F600002F04CFD002002F049FD002002F046FD69
:103F7000002002F043FD002002F040FD002002F08E
:103F80003DFD002002F03AFD002002F037FD002048
:103F900002F034FD002002F031FD002002F02EFD81
:103FA000002002F02BFD002002F028FD002002F08E
:103FB00025FD002002F022FD002002F01FFD002060
:103FC00002F01CFDF02002F01FFD002002F016FDA3
:103FD000502002F013FD002002F010FD002002F03E
:103FE0000DFD002002F00AFDF32002F00DFD00207F
:103FF00002F004FDF92002F007FD062002F0FEFCAD
:10400000102002F0FBFC292002F0F8FC002002F056
:10401000F5FC3A2002F0F8FC552002F0EFFC1120EC
:1040200002F0F2FC642004F067F8292002F0ECFCB6
:10403000352002F0E9FC002002F0E0FC512002F003
:10404000E3FCFF2002F0DAFC532002F0DDFC2C2020
:1040500002F0D4FC552002F0D7FC822002F0CEFC06
:104060002C2002F0D1FC02F0ECB8FE48808845F22A
:10407000105188427ED155214FF4704002F0D4FC9B
:10408000AA214FF2010002F0CFFC52214FF20200B0
:1040900002F0CAFC08214FF2030002F0C5FC012126
:1040A0004FF2040002F0C0FC0D214FF4304002F04A
:1040B000BBFC0D214BF2010002F0B6FC0D214BF2CE
:1040C000020002F0B1FC34214FF4364002F0ACFCA7
:1040D00034214BF2016002F0A7FC34214BF2026064
:1040E00002F0A2FC0D214FF4314002F09DFC0D21A5
:1040F0004BF2011002F098FC0D214BF2021002F07D
:1041000093FC34214FF4374002F08EFC34214BF203
:10411000017002F089FC34214BF2027002F084FC41
:1041200000214FF4324002F07FFC00214BF20120CD
:1041300002F07AFC00214BF2022002F075FC2421EF
:104140004FF4384002F070FC24214BF6010002F0DD
:104150006BFC24214BF6020002F066FC01214FF4B7
:104160003F4002F061FC0F214FF4334002F05CFC51
:104170000F2100E0FEE34BF2013002F055FC0F216D
:104180004BF2023002F050FC34214FF4394002F07F
:104190004BFC34214BF6011002F046FC34214BF667
:1041A000021002F041FC08214FF4354002F03CFCC3
:1041B00008214BF2015002F037FC08214BF202506B
:1041C00002F032FC03214FF4424002F02DFC242186
:1041D0004FF43A4002F028FC24214BF6012002F073
:1041E00023FC24214BF6022002F01EFC00214FF498
:1041F0003C4002F019FC78214BF6014002F014FC1F
:1042000000214BF6024002F00FFC00214FF43D402C
:1042100002F00AFC78214BF6015002F005FC002167
:104220004BF6025002F000FC00214FF43E4002F039
:10423000FBFB64214BF6016002F0F6FB00214FF41A
:10424000514002F0F1FB33214DF2011002F0ECFB82
:1042500000214DF2021002F0E7FB34214DF2031071
:1042600002F0E2FB00214DF2041002F0DDFB3A21E6
:104270004DF2051002F0D8FB00214DF2061002F0BD
:10428000D3FB4A214DF2071002F0CEFB00214DF284
:10429000081002F0C9FB5C214DF2091002F0C4FBCA
:1042A00000214DF20A1002F0BFFB81214DF20B10EC
:1042B00002F0BAFB00214DF20C1002F0B5FBA62172
:1042C0004DF20D1002F0B0FB00214DF20E1002F085
:1042D000ABFBE5214DF20F1002F0A6FB01214DF2E0
:1042E000101002F0A1FB13214DF2111002F09CFB03
:1042F00001214DF2121002F097FB54214DF21310E0
:1043000002F092FB01214DF2141002F08DFB82218C
:104310004DF2151002F088FB01214DF2161002F04B
:1043200083FBCA214DF2171002F07EFB02214DF2F1
:10433000181002F079FB00214DF2191002F074FB05
:1043400002214DF21A1002F06FFB01214DF21B10F9
:1043500002F06AFB02214DF21C1002F065FB3421D1
:104360004DF21D1002F060FB02214DF21E1002F012
:104370005BFB67214DF21F1002F056FB02214DF24C
:10438000201002F051FB84214DF2211002F04CFB71
:1043900002214DF2221002F047FBA4214DF223101E
:1043A00002F042FB02214DF2241002F03DFBB72146
:1043B0004DF2251002F038FB02214DF2261002F0DA
:1043C00033FBCF214DF2271002F02EFB02214DF2DC
:1043D000281002F029FBDE214DF2291002F024FB07
:1043E00002214DF22A1002F01FFBF2214DF22B1098
:1043F00002F01AFB02214DF22C1002F015FBFE21F7
:104400004DF22D1002F010FB03214DF22E1002F0A0
:104410000BFB10214DF22F1002F006FB03214DF291
:10442000301002F001FB33214DF2311002F0FCFAA2
:1044300003214DF2321002F0F7FA6D214DF23310E4
:1044400002F0F2FA00214FF4524002F0EDFA33216B
:104450004DF2012002F0E8FA00214DF2022002F0B4
:10446000E3FA01E05800002034214DF2032002F06D
:10447000DBFA00214DF2042002F0D6FA3A214DF287
:10448000052002F0D1FA00214DF2062002F0CCFA0C
:104490004A214DF2072002F0C7FA00214DF2082010
:1044A00002F0C2FA5C214DF2092002F0BDFA0021AF
:1044B0004DF20A2002F0B8FA81214DF20B2002F0F1
:1044C000B3FA00214DF20C2002F0AEFAA6214DF213
:1044D0000D2002F0A9FA00214DF20E2002F0A4FAFC
:1044E000E5214DF20F2002F09FFA01214DF210203C
:1044F00002F09AFA13214DF2112002F095FA0121EF
:104500004DF2122002F090FA54214DF2132002F0E5
:104510008BFA01214DF2142002F086FA82214DF22D
:10452000152002F081FA01214DF2162002F07CFAEA
:10453000CA214DF2172002F077FA02214DF218201D
:1045400002F072FA00214DF2192002F06DFA0221F8
:104550004DF21A2002F068FA01214DF21B2002F000
:1045600063FA02214DF21C2002F05EFA34214DF272
:104570001D2002F059FA02214DF21E2002F054FAD9
:1045800067214DF21F2002F04FFA02214DF2202048
:1045900002F04AFA84214DF2212002F045FA02216C
:1045A0004DF2222002F040FAA4214DF2232002F025
:1045B0003BFA02214DF2242002F036FAB7214DF2E7
:1045C000252002F031FA02214DF2262002F02CFAC9
:1045D000CF214DF2272002F027FA02214DF22820A8
:1045E00002F022FADE214DF2292002F01DFA02210A
:1045F0004DF22A2002F018FAF2214DF22B2002F09F
:1046000013FA02214DF22C2002F00EFAFE214DF297
:104610002D2002F009FA03214DF22E2002F004FAB7
:1046200010214DF22F2002F0FFF903214DF230202E
:1046300002F0FAF933214DF2312002F0F5F90321AD
:104640004DF2322002F0F0F96D214DF2332002F0EC
:10465000EBF900214FF4534002F0E6F933214DF21B
:10466000013002F0E1F900214DF2023002F0DCF9F4
:1046700034214DF2033002F0D7F900214DF204301D
:1046800002F0D2F93A214DF2053002F0CDF90021C5
:104690004DF2063002F0C8F94A214DF2073002F01F
:1046A000C3F900214DF2083002F0BEF95C214DF251
:1046B000093002F0B9F900214DF20A3002F0B4F9E4
:1046C00081214DF20B3002F0AFF900214DF20C3098
:1046D00002F0AAF9A6214DF20D3002F0A5F9002151
:1046E0004DF20E3002F0A0F9E5214DF20F3002F04C
:1046F0009BF901214DF2103002F096F913214DF291
:10470000113002F091F901214DF2123002F08CF9D2
:1047100054214DF2133002F087F901214DF214308B
:1047200002F082F982214DF2153002F07DF901216B
:104730004DF2163002F078F9CA214DF2173002F02E
:1047400073F902214DF2183002F06EF900214DF29A
:10475000193002F069F902214DF21A3002F064F9C1
:1047600001214DF21B3002F05FF902214DF21C30A5
:1047700002F05AF934214DF21D3002F055F90221B0
:104780004DF21E3002F050F967214DF21F3002F059
:104790004BF902214DF2203002F046F984214DF20E
:1047A000213002F041F902214DF2223002F03CF9B1
:1047B000A4214DF2233002F037F902214DF22430CA
:1047C00002F032F9B7214DF2253002F02DF9022125
:1047D0004DF2263002F028F9CF214DF2273002F0B9
:1047E00023F902214DF2283002F01EF9DE214DF2AC
:1047F000293002F019F902214DF22A3002F014F9A1
:10480000F2214DF22B3002F00FF902214DF22C3043
:1048100002F00AF9FE214DF22D3002F005F90321D4
:104820004DF22E3002F000F910214DF22F3002F03F
:10483000FBF803214DF2303002F0F6F833214DF24F
:10484000313002F0F1F803214DF2323002F0ECF891
:104850006D214DF2333002F0E7F800214FF454405F
:1048600002F0E2F833214DF2014002F0DDF80021C0
:104870004DF2024002F0D8F834214DF2034002F02C
:10488000D3F800214DF2044002F0CEF83A214DF267
:10489000054002F0C9F800214DF2064002F0C4F8CC
:1048A0004A214DF2074002F0BFF800214DF20840C6
:1048B00002F0BAF85C214DF2094002F0B5F800218F
:1048C0004DF20A4002F0B0F881214DF20B4002F0A7
:1048D000ABF800214DF20C4002F0A6F8A6214DF2F3
:1048E0000D4002F0A1F800214DF20E4002F09CF8BC
:1048F000E5214DF20F4002F097F801214DF21040F2
:1049000002F092F813214DF2114002F08DF80121CE
:104910004DF2124002F088F854214DF2134002F09B
:1049200083F801214DF2144002F07EF882214DF20D
:10493000154002F079F801214DF2164002F074F8AA
:10494000CA214DF2174002F06FF802214DF21840D3
:1049500002F06AF800214DF2194002F065F80221D8
:104960004DF21A4002F060F801214DF21B4002F0B6
:104970005BF800E004E302214DF21C4002F054F821
:1049800034214DF21D4002F04FF802214DF21E403D
:1049900002F04AF867214DF21F4002F045F802216B
:1049A0004DF2204002F040F884214DF2214002F007
:1049B0003BF802214DF2224002F036F8A4214DF2DC
:1049C000234002F031F802214DF2244002F02CF88D
:1049D000B7214DF2254002F027F802214DF2264082
:1049E00002F022F8CF214DF2274002F01DF80221FB
:1049F0004DF2284002F018F8DE214DF2294002F075
:104A000013F802214DF22A4002F00EF8F2214DF285
:104A10002B4002F009F802214DF22C4002F004F87C
:104A2000FE214DF22D4001F0FFFF03214DF22E40FB
:104A300001F0FAFF10214DF22F4001F0F5FF0321A4
:104A40004DF2304001F0F0FF33214DF2314001F0E2
:104A5000EBFF03214DF2324001F0E6FF6D214DF2F4
:104A6000334001F0E1FF00214FF4554001F0DCFF3D
:104A700033214DF2015001F0D7FF00214DF20250D9
:104A800001F0D2FF34214DF2035001F0CDFF00219F
:104A90004DF2045001F0C8FF3A214DF2055001F0EB
:104AA000C3FF00214DF2065001F0BEFF4A214DF236
:104AB000075001F0B9FF00214DF2085001F0B4FF9A
:104AC0005C214DF2095001F0AFFF00214DF20A5078
:104AD00001F0AAFF81214DF20B5001F0A5FF00214A
:104AE0004DF20C5001F0A0FFA6214DF20D5001F047
:104AF0009BFF00214DF20E5001F096FFE5214DF293
:104B00000F5001F091FF01214DF2105001F08CFF88
:104B100013214DF2115001F087FF01214DF2125087
:104B200001F082FF54214DF2135001F07DFF01216D
:104B30004DF2145001F078FF82214DF2155001F032
:104B400073FF01214DF2165001F06EFFCA214DF2A4
:104B5000175001F069FF02214DF2185001F064FF77
:104B600000214DF2195001F05FFF02214DF21A5061
:104B700001F05AFF01214DF21B5001F055FF0221B7
:104B80004DF21C5001F050FF34214DF21D5001F048
:104B90004BFF02214DF21E5001F046FF67214DF2FE
:104BA0001F5001F041FF02214DF2205001F03CFF67
:104BB00084214DF2215001F037FF02214DF22250A5
:104BC00001F032FFA4214DF2235001F02DFF02210C
:104BD0004DF2245001F028FFB7214DF2255001F08D
:104BE00023FF02214DF2265001F01EFFCF214DF28E
:104BF000275001F019FF02214DF2285001F014FF57
:104C0000DE214DF2295001F00FFF02214DF22A5012
:104C100001F00AFFF2214DF22B5001F005FF0221B5
:104C20004DF22C5001F000FFFE214DF22D5001F00D
:104C3000FBFE03214DF22E5001F0F6FE10214DF245
:104C40002F5001F0F1FE03214DF2305001F0ECFE47
:104C500033214DF2315001F0E7FE03214DF2325085
:104C600001F0E2FE6D214DF2335001F0DDFE002136
:104C70004FF4564001F0D8FE33214DF2016001F0AF
:104C8000D3FE00214DF2026001F0CEFE34214DF240
:104C9000036001F0C9FE00214DF2046001F0C4FE82
:104CA0003A214DF2056001F0BFFE00214DF2066091
:104CB00001F0BAFE4A214DF2076001F0B5FE002175
:104CC0004DF2086001F0B0FE5C214DF2096001F088
:104CD000ABFE00214DF20A6001F0A6FE81214DF2EB
:104CE0000B6001F0A1FE00214DF20C6001F09CFE72
:104CF000A6214DF20D6001F097FE00214DF20E60ED
:104D000001F092FEE5214DF20F6001F08DFE0121D0
:104D10004DF2106001F088FE13214DF2116001F098
:104D200083FE01214DF2126001F07EFE54214DF20E
:104D3000136001F079FE01214DF2146001F074FE60
:104D400082214DF2156001F06FFE01214DF21660D7
:104D500001F06AFECA214DF2176001F065FE0221E2
:104D60004DF2186001F060FE00214DF2196001F073
:104D70005BFE02214DF21A6001F056FE01214DF258
:104D80001B6001F051FE02214DF21C6001F04CFE4F
:104D900034214DF21D6001F047FE02214DF21E60EC
:104DA00001F042FE67214DF21F6001F03DFE02213D
:104DB0004DF2206001F038FE84214DF2216001F0B7
:104DC00033FE02214DF2226001F02EFEA4214DF2AD
:104DD000236001F029FE02214DF2246001F024FE3F
:104DE000B7214DF2256001F01FFE02214DF2266031
:104DF00001F01AFECF214DF2276001F015FE0221CD
:104E00004DF2286001F010FEDE214DF2296001F024
:104E10000BFE02214DF22A6001F006FEF2214DF256
:104E20002B6001F001FE02214DF22C6001F0FCFD2F
:104E3000FE214DF22D6001F0F7FD03214DF22E60B1
:104E400001F0F2FD10214DF22F6001F0EDFD032184
:104E50004DF2306001F0E8FD33214DF2316001F098
:104E6000E3FD03214DF2326001F0DEFD6D214DF2D4
:104E7000336001F0D9FD55214FF4704001F0D4FDAD
:104E8000AA214FF2010001F0CFFD52214FF20200A2
:104E900001F0CAFD08214FF2030001F0C5FD002119
:104EA0004FF2040001F0C0FDCC214FF4314001F07D
:104EB000BBFD00214BF2011001F0B6FD05214FF4BE
:104EC000364001F0B1FD70214FF4374001F0ACFDE8
:104ED00070214BF2017001F0A7FD01214FF4384021
:104EE00001F0A2FD03214BF6010001F09DFD03211D
:104EF0004BF6020001F098FD03214BF6030001F090
:104F000093FD02214FF43C4001F08EFD00214BF651
:104F1000014001F089FD00214BF6024001F084FDC3
:104F2000D0214FF4494001F07FFD02214CF60110E1
:104F300001F07AFD50214CF6021001F075FD502170
:104F40004CF6031001F070FD50214CF6041001F0F6
:104F50006BFD00214FF4545001F066FD55214FF4D4
:104F6000685001F061FD4FF4885001F04DFD78204C
:104F700003F0E8F84FF4245001F046FD01F061B968
:104F8000FE48808849F2253188427DD147F6F001FC
:104F9000E52001F049FD4FF48071012001F044FD4E
:104FA0004FF4E061022001F03FFD41F230010320A7
:104FB00001F03AFD0021042001F036FD40F202210B
:104FC000082001F031FD0021092001F02DFD002114
:104FD0000A2001F029FD00210C2001F025FD00210F
:104FE0000D2001F021FD00210F2001F01DFD002109
:104FF000102001F019FD0721112001F015FD0021FD
:10500000122001F011FD0021132001F00DFD0021FF
:10501000072001F009FD41F29061102001F004FD2C
:1050200040F22721112001F0FFFC9D21122001F008
:10503000FBFC4FF4C851132001F0F6FC2521292078
:1050400001F0F2FC0D212B2001F0EEFC07213020B5
:1050500001F0EAFC40F20331312001F0E5FC0321CC
:10506000322001F0E1FC40F20621352001F0DCFCA9
:105070000821362001F0D8FC40F20641372001F02B
:10508000D3FC4FF4417100E058E0382001F0CCFC33
:105090000721392001F0C8FC40F202613C2001F0F8
:1050A000C3FC08213D2001F0BFFC0021502001F08D
:1050B000BBFCEF21512001F0B7FC0021522001F090
:1050C000B3FC40F23F11532001F0AEFC4FF42741F6
:1050D000602001F0A9FC0121612001F0A5FC002164
:1050E0006A2001F0A1FC0021802001F09DFC00213C
:1050F000812001F099FC0021822001F095FC002123
:10510000832001F091FC0021842001F08DFC00211E
:10511000852001F089FC1021902001F085FC4FF4DE
:10512000C061922001F080FC40F23311072001F0B1
:105130007BFC2221002001F077FC1FE78F4880884C
:1051400049F2283188427DD141F28F01EC2001F0F3
:105150006BFC41F23421EF2001F066FC4FF48071CA
:10516000012001F061FC4FF4E061022001F05CFCE1
:1051700041F23001032001F057FC0021042001F02E
:1051800053FC40F20221082001F04EFC00210920CE
:1051900001F04AFC00210A2001F046FC01210C200C
:1051A00001F042FC00210D2001F03EFC00210F2007
:1051B00001F03AFC0021102001F036FC07211120FB
:1051C00001F032FC0021122001F02EFC00211320FE
:1051D00001F02AFC0121072001F026FC322002F018
:1051E0008BFF41F29041102001F01EFC40F227217C
:1051F000112001F019FC322002F07EFF8A211220DA
:1052000001F012FC322002F077FF4FF4D05113204E
:1052100001F00AFC0621292001F006FC0D212B20BB
:1052200001F002FC322002F067FF0021202001F093
:10523000FBFB0021212001F0F7FB322002F05CFF94
:10524000002100E075E0302001F0EEFB40F2046147
:10525000312001F0E9FB40F20531322001F0E4FB9E
:105260000021352001F0E0FB40F60941362001F035
:10527000DBFB4FF40171372001F0D6FB40F2013126
:10528000382001F0D1FB40F20771392001F0CCFB4E
:1052900000213C2001F0C8FB40F60A213D2001F02E
:1052A000C3FB322002F028FF0021502001F0BCFB9C
:1052B000EF21512001F0B8FB0021522001F0B4FB96
:1052C00040F23F11532001F0AFFB4FF42741602023
:1052D00001F0AAFB0121612001F0A6FB00216A2058
:1052E00001F0A2FB0021802001F09EFB0021812023
:1052F00001F09AFB0021822001F096FB002183201F
:1053000001F092FB0021842001F08EFB002185201A
:1053100001F08AFB1021902001F086FB4FF4C06160
:10532000922001F081FB40F23311072001F07CFB59
:1053300024E61248808849F2203188427ED100213B
:10534000084601F071FB4FF48071012001F06CFB05
:105350004FF4E061022001F067FB41F230010320CD
:1053600001F062FB0021042001F05EFB40F202210B
:10537000082001F059FB0021092001E0580000201D
:1053800001F052FB00210A2001F04EFB01210C200C
:1053900001F04AFB00210D2001F046FB00210F2007
:1053A00001F042FB322002F0A7FE40F2011107207B
:1053B00001F03AFB322002F09FFE4FF4865110209C
:1053C00001F032FB0721112001F02EFB4FF4887110
:1053D000122001F029FB4FF43061132001F024FB6F
:1053E0000021292001F020FB44F210012B2001F0C4
:1053F0001BFB0021502001F017FBEF21512001F091
:1054000013FB0021522001F00FFB40F23F1153200B
:1054100001F00AFB4FF41C51602001F005FB012153
:10542000612001F001FB00216A2001F0FDFA00215A
:10543000802001F0F9FA0021812000E030E001F045
:10544000F3FA0021822001F0EFFA0021832001F01D
:10545000EBFA0021842001F0E7FA0021852001F019
:10546000E3FA1021902001F0DFFA0021922001F0F0
:10547000DBFA0121932001F0D7FA4FF488719520CF
:1054800001F0D2FA0021972001F0CEFA00219820F5
:1054900001F0CAFA40F27311072001F0C5FA6DE578
:1054A000FE48808849F2313188427DD141F21401B1
:1054B000E72001F0B9FA4FF48071012001F0B4FA4D
:1054C0004FF40071022001F0AFFA41F238010320DD
:1054D00001F0AAFA40F20221082001F0A5FA002109
:1054E000092001F0A1FA00210A2001F09DFA002113
:1054F0000C2001F099FA00210D2001F095FA00210D
:105500000F2001F091FA0021102001F08DFA0721FF
:10551000112001F089FA0021122001F085FA002102
:10552000132001F081FAC82002F0E6FD41F29061FB
:10553000102001F079FA40F22721112001F074FACD
:10554000322002F0D9FD0C21122001F06DFA322038
:1055500002F0D2FD4FF40061132001F065FA112131
:10556000292001F061FA0B212B2001F05DFA322095
:1055700002F0C2FD0021202001F056FA40F23F1156
:10558000212001F051FA0021302001F04DFA4FF4B2
:105590008371312001F048FA0021322001F044FAF1
:1055A0004FF40171352000E064E001F03DFA41F272
:1055B0000A61362001F038FA40F20771372001F015
:1055C00033FA4FF48371382001F02EFA40F207715C
:1055D000392001F029FA40F202413C2001F024FA7E
:1055E00040F60F413D2001F01FFA0021502001F04C
:1055F0001BFAEF21512001F017FA0021522001F08F
:1056000013FA40F23F11532001F00EFA4FF41C51EF
:10561000602001F009FA0121612001F005FA002162
:105620006A2001F001FA0021802001F0FDF900213B
:10563000812001F0F9F90021822001F0F5F9002123
:10564000832001F0F1F90021842001F0EDF900211F
:10565000852001F0E9F91021902001F0E5F94FF4DF
:10566000C061922001F0E0F940F23311072001F00F
:10567000DBF983E48948808845F2084188427DD17E
:105680004FF48071012001F0CFF94FF4E061022066
:1056900001F0CAF941F23001032001F0C5F90021FF
:1056A000042001F0C1F940F20721082001F0BCF903
:1056B0000021092001F0B8F900210A2001F0B4F915
:1056C00000210C2001F0B0F900210D2001F0ACF90F
:1056D00000210F2001F0A8F9142002F00DFD41F285
:1056E000B061102001F0A0F90121112001F09CF916
:1056F0000121172001F098F94FF49C71122001F05C
:1057000093F94FF40061132001F08EF9092129204B
:1057100001F08AF909212A2001F086F90021A4204C
:1057200001F082F90021502001F07EF9EF21512093
:1057300001F07AF90021522001F076F940F23F1190
:10574000532001F071F94FF41C51602001F06CF905
:105750000121612001F068F900216A2001F064F95B
:105760000021802001F060F90021812001F05CF926
:105770000021822001F058F9002100E024E083207C
:1057800001F052F90021842001F04EF9002185201A
:1057900001F04AF91321902001F046F900219220EE
:1057A00001F042F90321932001F03EF94FF4887192
:1057B000952001F039F940F27311072001F034F916
:1057C000322002F099FCB8E43448808841F2055157
:1057D00088427DD10021072001F026F9322002F015
:1057E0008BFC4FF48E71122001F01EF90121A420D0
:1057F00001F01AF90F21082001F016F908210A20FA
:1058000001F012F908210D2001F00EF940F20771A4
:10581000302001F009F90721312001F005F940F2AB
:105820000361322001F000F94FF4E061332001F010
:10583000FBF840F20221342001F0F6F80221352075
:1058400001F0F2F841F60F71362001F0EDF840F268
:105850000771372001F0E8F80021382001F0E4F862
:105860000021392001F0E0F840F207713A2001F000
:10587000DBF800213B2001F0D7F807213C2001F0A4
:10588000D3F800213D2001F0CFF8322002F034FCA3
:105890000121072001F0C8F8012101E05800002093
:1058A000172001F0C1F8322002F026FC4FF4BD5160
:1058B000102001F0B9F840F21721112001F0B4F8DE
:1058C0004FF48F71122001F0AFF84FF4706100E0D7
:1058D00098E0132001F0A8F800212A2001F0A4F894
:1058E0000A21292001F0A0F84FF49F71122001F045
:1058F0009BF80021502001F097F8EF21512001F092
:1059000093F80021522001F08FF840F23F1153200C
:1059100001F08AF84FF41C51602001F085F8012154
:10592000612001F081F800216A2001F07DF800215A
:10593000802001F079F80021812001F075F8002124
:10594000822001F071F80021832001F06DF8002120
:10595000842001F069F80021852001F065F8132109
:10596000902001F061F84FF44071922001F05CF852
:105970000521932001F058F80021952001F054F8FA
:105980000021972001F050F80021982001F04CF8F8
:105990004FF48071012001F047F84FF4E0610220DC
:1059A00001F042F841F23801032001F03DF80021F6
:1059B000042001F039F800210C2001F035F8002115
:1059C0000F2001F031F80021202001F02DF80021F6
:1059D000212001F029F82121072001F025F81420C9
:1059E00002F08AFB6121072001F01EF8142002F06A
:1059F00083FB40F27311072001F016F8142002F027
:105A00007BFB95E4FE4880884BF2055188427CD1AF
:105A10000021084601F008F80021084601F004F8CA
:105A20000021084601F000F80021084600F0FCFFC4
:105A30000121A42000F0F8FF142002F05DFB4FF4D8
:105A40001C51602000F0F0FF40F20221082000F01D
:105A5000EBFF4FF40571302000F0E6FF43F21571C3
:105A6000312000F0E1FF40F20461322000F0DCFF61
:105A700040F61661332000F0D7FF42F211213420A6
:105A800000F0D2FF4FF4A851352000F0CDFF48F2CE
:105A90000751362000F0C8FF41F20741372000F0DF
:105AA000C3FF41F20341382000F0BEFF202139201E
:105AB00000F0BAFF1A21902000F0B6FF002110205C
:105AC00000F0B2FF0721112000F0AEFF00211220EC
:105AD00000F0AAFF0021132000F0A6FF142002F01E
